:060000000C9433000C9487
:1000060000000C9400000C9400000C9400000C946A
:1000160000000C9400000C9400000C9400000C945A
:1000260000000C9400000C9400000C9400000C944A
:1000360000000C9400000C9400000C9400000C943A
:1000460000000C9400000C9400000C940000102793
:10005600E80364000A00010000100001100001001E
:10006600F894EE27ECBBF1E0FBBFEBBFE5BFF8E190
:10007600F1BDE1BD8DE0A2E0BB27ED938A95E9F7DE
:1000860080E094E0A0E6ED930197E9F7EFE5EDBF98
:10009600E4E0EEBFC0E6D1E00C945100E0E0EBB93D
:1000A600E6E8E0BDE0E0E0BDE7E6E9B9E0E0E4BBB4
:1000B600E5BBEFEFE7BBE0E0E8BBA0E09899A1E085
:1000C600E0E00E949B00E0E00E94AE00E02961F0C3
:1000D600E0E0EAB9E8EEF3E0FA93EA930E94A200C0
:1000E600EFEFE5BBE0E0E8BBA0E09899A1E0E1E036
:1000F6000E949B00E1E00E94AE00E02189F0E8E06A
:10010600EAB9EFEFE8BB1EE61A930E949500E4E613
:10011600F0E0FA93EA930E94A200E0E0E8BBE5BBB8
:10012600CCCFFFCF5D9BFECFE881ECB92196089539
:100136000E94AE000E2EA0E09999A1E00895E991E3
:10014600F991309639F088EE93E00197F1F7A8958A
:100156003197C9F70895EA17E1E009F0EE27089507
:00000001FF
