:0A0000000C942A000C9400000C94EC
:10000A0000000C9400000C9400000C9400000C9466
:10001A0000000C9400000C9400000C9448000C940E
:10002A0000000C9400000C9400000C9400000C9446
:10003A0000000C9400000C9400000C9400000C9436
:10004A0000000C9400000C940000F894EE27ECBB1E
:10005A00F1E0FBBFEBBFE5BFF8E1F1BDE1BD8DE02B
:10006A00A2E0BB27ED938A95E9F780E094E0A0E649
:10007A00ED930197E9F7EFE5EDBFE4E0EEBFC0E6E7
:10008A00D1E00C947900EA93EFB7EA936394E8E23B
:10009A00E61551F46624772019F4E1E07E2E04C0B7
:1000AA00E1E0E71509F47724E4E6E51511F4E1E067
:1000BA007E2E552009F47724E72DE03011F4DF98DD
:1000CA0001C0DF9AE991EFBFE9911895AA93E881F7
:1000DA00E7B98DE08A95F1F7369A349BFECF349AC8
:1000EA00E4B1F5B121960895E0E8EABBE0E0E2BFA9
:1000FA00E5BFE4BFE1E0E9BFE0E0EAB9E0E8E8B97A
:10010A00E0E0E0BFE7B9E3E8E6B9E0E0EDB9E6BF71
:10011A007894A0E0DBDFE4B1F5B1EE3CA0E0FA07A9
:10012A00D0F4E4B1F5B1F695E7955E2EE9E15E16F5
:10013A0008F05A94EEE35E1608F05A94E4E6E519DC
:10014A004E2EEDE0E3BF772009F44CBEE1E0E7155F
:10015A0009F45CBE03C0E4E65E2E4424DACFFFCF86
:00000001FF
