:100000000C943C000C9400000C9400000C94000034
:100010000C9400000C9400000C9400000C94000060
:100020000C9400000C9400000C9400000C94000050
:100030000C9400000C9400000C9400000C94000040
:100040000C9400000C9400000C9400000C94000030
:100050000C9400001027E80364000A00010000105F
:10006000000110000100646174613A25640080C0E1
:10007000020070016E000000F894EE27ECBBF1E086
:10008000FBBFEBBFE5BFF8E1F1BDE1BD8DE0A2E054
:10009000BB27ED938A95E9F780E094E0A0E6ED9325
:1000A0000197E9F7E0E7F0E085919591009761F01D
:1000B000A591B59105901590BF01F00105900D92A5
:1000C0000197E1F7FB01F0CFEFE5EDBFE4E0EEBF14
:1000D000C0E6D1E00C946C00E0E0EBBBEABBE8BB0F
:1000E000E7BBE5BBEFEFE4BBE0E0E2BBE1BBE5BFB4
:1000F000E4BFE9BFEBB9E0E1EAB9E6E8E0BDE0E082
:10010000E0BDE3E3E9B9A0E10E9447015CB0E0E6AD
:10011000F1E0FA93EA93E6E6F0E0FA93EA93E52D4C
:10012000FF27662777270E948D0384E00E94F10253
:100130002896E0E0EA93A0E00E94E800A0E6B1E0A3
:100140000E942501A2E0B0E00E947303DFCFFFCF41
:10015000FFE0FA95F1F70895AAB3AF70AABBD99A58
:10016000D898F6DFDA9AF4DFA9B3DA98F1DFDA9AF1
:10017000EFDFDA98A7FDF5CF0895A07FAB2BABBBDF
:10018000DA9A0E94A800DA980E94A8000895AA931B
:10019000D998AAB3A76FAABBBBB3BF70A881EDDF84
:1001A000A881A295EADFD99A0C947801DA9A0E9484
:1001B000A800E9B3DA980E94A800E07F08950E94A1
:1001C000A800F4DFAE2FF2DFD998E295EA2B08956C
:1001D000AA930E94AC00E881F0E0E059FE4FE08174
:1001E000A981AE0F0E94C7004980788022960895A9
:1001F0000E94AC00A2E00E94C7000E94AC00ACE0EC
:100200000E94C7000E94AC00A1E00E94C700E0E08D
:100210007E2E4E2E0895AA93EF93FF93A8816894A3
:10022000AA3019F0E894461430F07394E0E0EA93B1
:10023000A72DCEDF36F043948FDFD89AA8810E9495
:10024000C700FF91EF910C947801BA93AA931A9387
:10025000A981BA81ED91A983BA831E2FE03019F0EC
:10026000A12FD9DFF5CF188123960895AA27BB27A0
:100270001197F1F70895AA93D998AAB3A76FAABBCB
:10028000BBB3BF70A8810E94BD00D99A31C0AA93A8
:10029000DA98D8986880E881E058E0937201E881A4
:1002A000E054E09373010E943E030E943E030E94CB
:1002B0003E03DCDFA0E2DFDFD9DFA8E20E944303D8
:1002C000A4E00E944303A5E80E944303AAB3AF70D1
:1002D000AABBD99A0E94DF00E53011F0E0E008C027
:1002E0000E94AC00A6E00E94C7000E94F800E1E076
:1002F00021960895BA93AA931A930A93AA81BB816F
:1003000012960E948503309759F1AA81BB811496F9
:100310000E9485038F01309761F00230E0E01E07F4
:10032000F0F0F80131978F01AA81BB811496ED930B
:10033000FC93AA81BB811296ED91FD913196FE93BB
:10034000EE933197AC81A083AA81BB810E94850383
:10035000FF232AF0ED91FD913196FE93EE9306C0B6
:10036000AA81BB81EFEFFFEFED93FC931981088128
:1003700025960895BA93AA9326970E94920310E0B7
:10038000AC85BD85E0E0F0E0ED93FC93EA89FB8964
:100390003196EA8BFB8B3197E4912E2FE03011F4EC
:1003A0000C94E902E12FE03039F4253211F411E028
:1003B00002C00E9447030CC1E130A9F4253219F4B0
:1003C0000E94470304C112E040E000E02D3211F426
:1003D00001E0FEC02B3211F44BE2FAC0203211F4DE
:1003E00040E2F6C002C0E23039F450E013E02033BE
:1003F00011F40068EDC004C0E33011F00C94E80281
:10040000203310F02A3308F007C0AAE05A9F502D7D
:10041000E22FE0535E0FDCC0E22FE33649F40E9486
:100420004E03E889F989A481AA930E945403CFC09E
:10043000E33741F40E944E030E945A030E942503B1
:100440001E2F0AC0E03761F40E944E030E945A0337
:100450000E9431031E2F086002600F7730E035C024
:10046000E43611F0E93611F4046002C0E53731F4E6
:10047000E4E5F0E0EE83FF8315E00DC0E83511F40C
:10048000086004C0E83711F00C94E702EEE5F0E0F4
:10049000EE83FF8314E002FF14C00E944E030E940B
:1004A0006403AB85AA233AF4EA85FB850E948103A5
:1004B000EA87FB874DE2403011F01F5F01C00B7FE0
:1004C00004C00E944E030E94640300FD11C0151772
:1004D00078F407FF08C002FF04C00B7F242F1150DF
:1004E00001C020E301C020E20E9447035150EFCF3A
:1004F000312F01FF17C03030A1F003FF06C0EE819D
:10050000FF812591EE83FF8305C0AE81BF812D91D0
:10051000AE83BF830E944703503009F051503150E1
:10052000EACF4BC020E3EE81FF810E948903E88778
:10053000F987EE81FF813296EE83FF83E885F985A6
:10054000AA85BB85AE17BF0750F02F5FA885B98578
:10055000EA85FB85EA1BFB0BEA87FB87EFCF2A3393
:1005600028F003FF02C0295F01C0295D04FD1AC005
:10057000213320F4A885B985119709F409C05317D0
:1005800010F000FF01C013C020E207FF0BC020E302
:10059000006102FF07C00B7F4A930E945403503052
:1005A00009F051500E944703503009F0515031502A
:1005B000A885B985129708F0B5CF00FF08C0503064
:1005C00031F05150E0E2EA930E945403F8CF10E07A
:1005D000DDCEAC85BD850E9485030E94990364969B
:1005E0000895FF92F82E26970E9494030E946C03B0
:1005F000309719F4EFEFFFEF23C0DE0116960E944B
:100600007D038D010E946C03EE83FF83E0E0E887A9
:10061000E987DE011A960E947D030E948503FA9302
:10062000EA931A930A93EAE7F1E0FA93EA93DE0178
:100630001A96A0DE9F01AE81BF81E0E0EC93F90144
:100640000E949B032A96FF900895BA93AA93A991BA
:10065000B991EE27FF276D91662311F03196FBCFFC
:100660000895BA93AA93AA27BB27E991F991059017
:10067000002011F01196FBCFFD0108950E94360174
:10068000A0E30C943B010E94C7000C9436012A930E
:10069000AD85BE85EF85F88909950895E889F989C2
:1006A0003497E88BF98B0895AD85BE85EF85F88981
:1006B00009950895A889B98914960E948503EE8347
:1006C000FF83AE81BF810895A889B98914960E94DD
:1006D0008503EA87FB870895DE011C960E947D034F
:1006E0000E9485030895109639F088EE93E00197F3
:1006F000F1F7A8951197C9F708950024AF0DB01D23
:100700000895F195E195F0400895ED91FC911197D0
:1007100008950590F491E02D08957A936A93FA93E1
:10072000EA9308955A934A933A932A931A930A9311
:1007300008955D814C813B812A811981088108954A
:00000001FF
