:0E0000000C942F000C9400000C9400000C9443
:10000E0000000C9400000C9400000C9400000C9462
:10001E0000000C9400000C9400000C9400000C9452
:10002E0000000C9400000C9400000C9400000C9442
:10003E0000000C9400000C9400000C9400000C9432
:10004E0000000C94000007000200040054000000A1
:10005E00F894EE27ECBBF1E0FBBFEBBFE5BFF8E198
:10006E00F1BDE1BD8DE0A2E0BB27ED938A95E9F7E6
:10007E0080E094E0A0E6ED930197E9F7E6E5F0E085
:10008E0085919591009761F0A591B5910590159088
:10009E00BF01F00105900D920197E1F7FB01F0CF42
:1000AE00EFE5EDBFE4E0EEBFC0E6D1E00C945F00FB
:1000BE00E0E0EBBBEFEFEABBE0E0E8BBEFEFE7BB66
:1000CE00E0E0E5BBEFEFE4BBE0E0E2BBEFEFE1BB6E
:1000DE00E0E0E3BFE2BFECBFE5BFE4BFE9BFEAB9D2
:1000EE00E0E8E8B9E0E0E0BFE6B9EDB9E6BF42BA54
:1000FE00E8E0EBBBE7ECE8BBEFEC28D01CF4E7E064
:10010E00F0E02F01A8EEB3E00E94B50042BAEFEC8A
:10011E00EBBBE8E0E8BBE7EC19D01CF4E7E0F0E05D
:10012E002F01A8EEB3E00E94B50042BAE7ECEBBB9C
:10013E00EFECE8BBE8E00AD01CF4E7E0F0E02F01BA
:10014E00A8EEB3E00E94B500D2CFFFCFE5BB440CC2
:10015E00551CE0E0F1E0E415F5050895109639F030
:10016E0088EE93E00197F1F7A8951197C9F70895D6
:00000001FF
