:0E0000000C942A000C9400000C9400000C9448
:10000E0000000C9400000C9400000C9400000C9462
:10001E0000000C9400000C9400000C9400000C9452
:10002E0000000C9400000C9400000C9400000C9442
:10003E0000000C9400000C9400000C9400000C9432
:10004E0000000C940000F894EE27ECBBF1E0FBBF2F
:10005E00EBBFE5BFF8E1F1BDE1BD8DE0A2E0BB274E
:10006E00ED938A95E9F780E094E0A0E6ED93019791
:10007E00E9F7EFE5EDBFE4E0EEBFC0E6D1E00C94AA
:10008E005600E881E064E7B987E08A95F1F7369A81
:10009E00349BFECF349AE4B1F5B121960895E0E099
:1000AE00EBBBEABBE8BBEFEFE7BBE0E0E5BBE4BBD5
:1000BE00E2BBE1BBE3BFE2BFECBFEFBDEEBDEDBD0A
:1000CE00ECBDE7BDE6BDEBBDEABDE9BDE8BDE2BDF9
:1000DE00E5BDE4BDE3BDE5BFE4BFE9BFE0E8E8B9D7
:1000EE00E0E0E0BFE0E4E7B9E1EAE6B9E0B7EF71DE
:1000FE00E0BFE0E0EA93C5DF5E2E58BAFACFFFCF3D
:00000001FF
