:0C0000000C944B000C9400000C940000C9
:10000C000C9400000C947B000C9400000C940000E9
:10001C000C9400000C9400000C9400000C94000054
:10002C000C9400000C9400000C9400000C94000044
:10003C000C9400000C9400000C9400000C94000034
:10004C000C9400000C9400001027E80364000A00D4
:10005C0001000010000110000100000000005068B9
:10006C006173653D2025640080C001002D4E414E1A
:10007C0000494E46000004000600660002007201B2
:10008C0074000100760176000000F894EE27ECBBBA
:10009C00F1E0FBBFEBBFE5BFF8E1F1BDE1BD8DE0E9
:1000AC00A2E0BB27ED938A95E9F780E094E0A0E607
:1000BC00ED930197E9F7E2E8F0E0859195910097CF
:1000CC0061F0A591B59105901590BF01F0010590D7
:1000DC000D920197E1F7FB01F0CFEFE5EDBFE4E006
:1000EC00EEBFC0E6D1E00C949600EA93EFB7EA932A
:1000FC006394E2E1E61511F466249394E991EFBF61
:10010C00E9911895AA93E881E066E7B98BE18A95A5
:10011C00F1F7369A349BFECF349AE5B10C94180261
:10012C00E0E0EBBBEABBE5BFE4BFE0E4E9BFE0E045
:10013C00EAB9E0E8E8B9E0E0E0BFE0E6E7B9E3EA15
:10014C00E6B9E0B7EF71E0BFE0E0EDB9E6BF789457
:10015C000E94DE030E9429050E2EA72DE0E00E94CE
:10016C002905E02121F00E94E303E1E07E2E0E94AC
:10017C00DE030E942E050E2EA72DE1E00E9429051C
:10018C00E02111F0E2E07E2E0E94DE030E942905A0
:10019C000E2EA72DE2E00E942905E02181F00E949D
:1001AC00EA03E0936001F093610160936201709344
:1001BC0063010E94E303E3E07E2E66249924A72DBD
:1001CC00E3E00E942905EF93A1E09CDFAFEF0E94D2
:1001DC002905AF91EA2371F00E94EA03E0936401D0
:1001EC00F09365016093660170936701E0E0E5BDF3
:1001FC00E4E07E2EE4E0E71511F00C944601E0916A
:10020C006401F09165016091660170916701A8E647
:10021C00B1E080E090E00E943B05DF01CB01E09172
:10022C006001F091610160916201709163010E9423
:10023C0060050E949604AAE0B7ED83E89FE30E9454
:10024C00C6040E9461042F01A0E10E94E7010E94F4
:10025C009801E8E6F1E0FA93EA93EAE6F0E0FA9323
:10026C00EA93F2010E9424050E949B0584E00E94FF
:10027C0091032896A8E6B1E00E94C501E5E07E2E28
:10028C0067CFFFCFFFE0FA95F1F70895A1B3AF70F8
:10029C00A1BB919A9098F6DF929AF4DFA0B3929852
:1002AC00F1DF929AEFDF9298A7FDF5CF0895A07F2A
:1002BC00AB2BA2BB929A0E94480192980E944801D3
:1002CC000895AA939198A1B3A76FA1BBB2B3BF70C5
:1002DC00A881EDDFA881A295EADF919A0C9418020F
:1002EC00929A0E944801E0B392980E944801E07FE4
:1002FC0008950E944801F4DFAE2FF2DF9198E29549
:10030C00EA2B0895AA930E944C01E881F0E0EE5884
:10031C00FE4FE081A981AE0F0E9467018980B880F1
:10032C00229608950E944C01A2E00E9467010E944F
:10033C004C01ACE00E9467010E944C01A1E00E94BC
:10034C006701E0E0BE2E8E2E0895AA93EF93FF93E3
:10035C00A8816894AA3019F0E8948A1430F0B39408
:10036C00E0E0EA93AB2DCEDF36F083948FDF909AEA
:10037C00A8810E946701FF91EF910C941802BA9327
:10038C00AA931A93A981BA81ED91A983BA831E2FDE
:10039C00E03019F0A12FD9DFF5CF188123960895FD
:1003AC00AA27BB271197F1F70895AA939198A1B3A7
:1003BC00A76FA1BBB2B3BF70A8810E945D01919AD7
:1003CC0031C0AA9392989098A880E881E058E09365
:1003DC007401E881E054E09375010E94FD030E94D2
:1003EC00FD030E94FD03DCDFA0E2DFDFD9DFA8E222
:1003FC000E940204A4E00E940204A5E80E940204E8
:10040C00A1B3AF70A1BB919A0E947F01E53011F0AE
:10041C00E0E008C00E944C01A6E00E9467010E9427
:10042C009801E1E021960895BA93AA931A930A933E
:10043C00AA81BB8112960E949305309759F1AA812B
:10044C00BB8114960E9493058F01309761F00230A6
:10045C00E0E01E07F0F0F80131978F01AA81BB8113
:10046C001496ED93FC93AA81BB811296ED91FD91AC
:10047C003196FE93EE933197AC81A083AA81BB8118
:10048C000E949305FF232AF0ED91FD913196FE9386
:10049C00EE9306C0AA81BB81EFEFFFEFED93FC93C7
:1004AC001981088125960895BA93AA9326970E94DC
:1004BC00A00510E0AC85BD85E0E0F0E0ED93FC9389
:1004CC00EA89FB893196EA8BFB8B3197E4912E2FCD
:1004DC00E03011F40C948903E12FE03039F425322B
:1004EC0011F411E002C00E9406040CC1E130A9F421
:1004FC00253219F40E94060404C112E040E000E029
:10050C002D3211F401E0FEC02B3211F44BE2FAC093
:10051C00203211F440E2F6C002C0E23039F450E06F
:10052C0013E0203311F40068EDC004C0E33011F087
:10053C000C948803203310F02A3308F007C0AAE08B
:10054C005A9F502DE22FE0535E0FDCC0E22FE336B2
:10055C0049F40E940D04E889F989A481AA930E94A8
:10056C001304CFC0E33741F40E940D040E94190418
:10057C000E94C5031E2F0AC0E03761F40E940D04CF
:10058C000E9419040E94D1031E2F086002600F778D
:10059C0030E035C0E43611F0E93611F4046002C0E5
:1005AC00E53731F4E4E5F0E0EE83FF8315E00DC0B0
:1005BC00E83511F4086004C0E83711F00C94870397
:1005CC00EEE5F0E0EE83FF8314E002FF14C00E941E
:1005DC000D040E942304AB85AA233AF4EA85FB851B
:1005EC000E941805EA87FB874DE2403011F01F5F2F
:1005FC0001C00B7F04C00E940D040E94230400FD67
:10060C0011C0151778F407FF08C002FF04C00B7F58
:10061C00242F115001C020E301C020E20E940604E7
:10062C005150EFCF312F01FF17C03030A1F003FF35
:10063C0006C0EE81FF812591EE83FF8305C0AE815C
:10064C00BF812D91AE83BF830E940604503009F008
:10065C0051503150EACF4BC020E3EE81FF810E9414
:10066C009705E887F987EE81FF813296EE83FF8349
:10067C00E885F985AA85BB85AE17BF0750F02F5FBB
:10068C00A885B985EA85FB85EA1BFB0BEA87FB8706
:10069C00EFCF2A3328F003FF02C0295F01C0295D88
:1006AC0004FD1AC0213320F4A885B985119709F4EB
:1006BC0009C0531710F000FF01C013C020E207FF60
:1006CC000BC020E3006102FF07C00B7F4A930E941E
:1006DC001304503009F051500E940604503009F0B8
:1006EC0051503150A885B985129708F0B5CF00FF4D
:1006FC0008C0503031F05150E0E2EA930E941304EC
:10070C00F8CF10E0DDCEAC85BD850E9493050E942C
:10071C00A70564960895FF92F82E26970E94A205CD
:10072C000E942B04309719F4EFEFFFEF23C0DE018A
:10073C0016960E9414058D010E942B04EE83FF83F4
:10074C00E0E0E887E987DE011A960E9414050E9412
:10075C009305FA93EA931A930A93EAE1F2E0FA9377
:10076C00EA93DE011A96A0DE9F01AE81BF81E0E024
:10077C00EC93F9010E94A9052A96FF900895BA936B
:10078C00AA93A991B991EE27FF276D91662311F0D9
:10079C003196FBCF0895BA93AA93AA27BB27E99168
:1007AC00F9910590002011F01196FBCFFD010895F1
:1007BC00A0E00E948800AFEF0895EFE0E5BDE0E017
:1007CC00E4BDE9EDE3BD089564B57727E92DA2E119
:1007DC00EA9FF001DF01EE27A60DBE1FE9EDF0E068
:1007EC000E945B05E60FF71F0E94240508950E94E6
:1007FC00D601A0E30C94DB010E9467010C94D60196
:10080C002A93AD85BE85EF85F88909950895E88909
:10081C00F9893497E88BF98B0895AD85BE85EF8502
:10082C00F88909950895A889B98914960E949305A9
:10083C00EE83FF83AE81BF810895A889B989149690
:10084C000E949305EA87FB870895DE011C960E949F
:10085C0014050E9493050895552342F4503811F461
:10086C00E0FF04C03196691F791F6BF050E85727E1
:10087C0011F45F9373C05F3F31F0660F000C579516
:10088C006795752F08955F9300200AF073C06CC0B4
:10089C0050E8192E1522880F991F9527550F87950B
:1008AC0050E8072E0522660F771F7527550F6795A1
:1008BC000895689401C0E8945F93F2DF703818F0E3
:1008CC007F3F08F44BC056E1571BAAF451955830A2
:1008DC000EF4593030F0EFEFFFEF6FEF7FE777F961
:1008EC001AC077275523B9F0EE0FFF1F661F771F2D
:1008FC005A95D1F710C07727583028F0EF2FF62FE4
:10090C00672F5850F9CF552331F076956795F795A9
:10091C00E7955A95D1F700200AF488D05F91089595
:10092C00689401C0E894309760407040B1F00024A6
:10093C0026F0772312F4009479D0172E7EE1112043
:10094C0032F07A95EE0FFF1F661F111CF9CFEF2FB7
:10095C00F62F612D5F938ADF5F910895EE27FF27B5
:10096C00662777275F910895EFEFFFEF6FE77FEF33
:10097C005F910895EFEFFFEF6FE77FE75F910895C9
:10098C005F9386DF703851F3903841F3012408945B
:10099C00791F23F41CF300203AF3ECCF0F921F9332
:1009AC002F933F934F93112722279927689FA001DC
:1009BC008F9F302D410D591F6B9F300D411D591FBD
:1009CC008E9F27D0BF9F25D06A9F23D0BE9F1DD05E
:1009DC00AF9F1BD0AE9F110D291F391F491F591FE7
:1009EC00E32FF42F652F522F4F913F912F911F9191
:1009FC000F9066232AF0550FEE1FFF1F661F02C0D3
:100A0C0073954BF229DF5F910895100D211D391F4D
:100A1C0002C0200D311D491F591F08950024AF0D30
:100A2C00B01D0895F195E195F0400895F09560950D
:100A3C007095E195FF4F6F4F7F4F08956F2F660FA5
:100A4C00660B762F0895EA17E1E009F0EE2708957A
:100A5C00EA17E1E009F4EE270895FA9FF02DEB9FD9
:100A6C00F00DEA9FE02DF10D08957A9F702D6B9F8C
:100A7C00700DF89F700DE99F700D6A9F602D710DC0
:100A8C00FB9F600D711DE89F600D711D8827FA9FFB
:100A9C00F02D610D781FEB9FF00D611D781FEA9F03
:100AAC00E02DF10D681F781F089529D0D6DF0EF4C4
:100ABC00B9DF08953F934F935F930024112444278B
:100ACC00552730E2AA0FBB1F881F991F001C111C51
:100ADC00441F551F0E1A1F0A460B570B28F40E0EF7
:100AEC001F1E461F571F01C0A1603A9559F7FD0103
:100AFC00BC01D001CA015F914F913F910895E894D8
:100B0C00F7FF02C08FDF6894B7FF06C0A095B095C1
:100B1C00119600F8039400FA0895ED91FC91119749
:100B2C0008950590F491E02D08957A936A93FA93C1
:100B3C00EA9308955A934A933A932A931A930A93F1
:100B4C0008955D814C813B812A811981088108952A
:00000001FF
