:060000000C942A000C9490
:1000060000000C9400000C9400000C9400000C946A
:1000160000000C9400000C9400000C9400000C945A
:1000260000000C9400000C9400000C9400000C944A
:1000360000000C9448000C9400000C9400000C94F2
:1000460000000C9400000C9400000C940000F8943E
:10005600EE27ECBBF1E0FBBFEBBFE5BFF8E1F1BD7E
:10006600E1BD8DE0A2E0BB27ED938A95E9F780E03C
:1000760094E0A0E6ED930197E9F7EFE5EDBFE4E044
:10008600EEBFC0E6D1E00C945000EA931A9315B186
:10009600E5B1E8BB1991E9911895E0E0EBBBEABB45
:1000A600E8BBEFEFE7BBE0E0E5BBEFEFE4BBE0E08A
:1000B600E2BBE1BBE3BFE2BFECBFEFBDEEBDEDBD12
:1000C600ECBDE7BDE6BDEBBDEABDE9BDE8BDE2BD01
:1000D600E5BDE4BDE3BDE5BFE4BFE9BFEAB9E0E8DD
:1000E600E8B9E0E0E0BFE0E6E7B9EAEAE6B9E0B79A
:1000F600EF71E0BFE0E0EDB9E6BF7894FFCFFFCF48
:00000001FF
