:100000000C943E000C9400000C9400000C94000032
:100010000C9400000C9400000C9400000C94000060
:100020000C9400000C946E000C9400000C940000E2
:100030000C9400000C9400000C947B000C940000C5
:100040000C9400000C9400000C9400000C94000030
:100050000C9400001027E80364000A00010000105F
:1000600000011000010000002575000080C00100A3
:1000700007006600020079016C000000F894EE278A
:10008000ECBBF1E0FBBFEBBFE5BFF8E1F1BDE1BDCB
:100090008DE0A2E0BB27ED938A95E9F780E094E03C
:1000A000A0E6ED930197E9F7EEE6F0E085919591F2
:1000B000009761F0A591B59105901590BF01F001F1
:1000C00005900D920197E1F7FB01F0CFEFE5EDBF51
:1000D000E4E0EEBFC0E6D1E00C942B01EA93EFB769
:1000E000EA935394EFEFE51511F443945524E99105
:1000F000EFBFE99118950A921A92FA926A937A934D
:100100008A939A93AA93BA93EA93FA93EFB7EA93EE
:10011000A0917801B0E0A05ABE4FE5B1EC93E09118
:100120006001E8BBA0916101AF3F11F5772031F488
:10013000E2E0E3BFE1E07E2E692C19C0E62DA92D97
:100140000E9430050E2EA72DE1E00E942B05E02134
:1001500071F00E94E303ACE6B1E00E94F803E2E034
:100160007E2EE0E0E2BF4E2E5E2EE3E0E3BF9394EE
:10017000A0916001EFEF0E942B050E2EA72DE2E06B
:100180000E942B05E02141F00E94E303A0E7B1E0CB
:100190000E94F803E3E07E2EE3E0E715D1F50E942C
:1001A000FF03A0917001B091710180917201909153
:1001B00073010E94D104E0937401F0937501609380
:1001C0007601709377010E94FF030E946C045F0127
:1001D000A0E10E9497030E944803E0E0EA93A0E0B8
:1001E0000E943803E2E6F1E0FA93EA93E8E6F0E0F1
:1001F000FA93EA93F5010E9426050E945D0584E0CA
:100200000E94C4022896A2E6B1E00E947503E4E0D1
:100210007E2E0E94FF030E946A04E5BBA091780134
:10022000AF5FA0937801A23018F0E0E0E09378018E
:10023000E0917801E05EE7B9369AE991EFBFF99174
:10024000E991B991A9919991899179916991F990DF
:10025000199009901895E0E0EBBBEABBE8BBEFEF23
:10026000E7BBE0E0E5BBEFEFE4BBE0E0E2BBE1BB16
:10027000E5BFE4BFE9BFEAB9E0E8E8B9E0E0E0BF24
:10028000E0E2E7B9EAEEE6B9E0B7EF71E0BFE0E03F
:10029000EDB9E6BF7894FFCFFFCFBA93AA931A9334
:1002A0000A93AA81BB8112960E945005309759F19A
:1002B000AA81BB8114960E9450058F01309761F08E
:1002C0000230E0E01E07F0F0F80131978F01AA81BB
:1002D000BB811496ED93FC93AA81BB811296ED919C
:1002E000FD913196FE93EE933197AC81A083AA8164
:1002F000BB810E945005FF232AF0ED91FD913196BC
:10030000FE93EE9306C0AA81BB81EFEFFFEFED9362
:10031000FC931981088125960895BA93AA9326978C
:100320000E94620510E0AC85BD85E0E0F0E0ED9351
:10033000FC93EA89FB893196EA8BFB8B3197E49138
:100340002E2FE03011F40C94BC02E12FE03039F490
:10035000253211F411E002C00E9408040CC1E13002
:10036000A9F4253219F40E94080404C112E040E007
:1003700000E02D3211F401E0FEC02B3211F44BE20B
:10038000FAC0203211F440E2F6C002C0E23039F483
:1003900050E013E0203311F40068EDC004C0E330F6
:1003A00011F00C94BB02203310F02A3308F007C080
:1003B000AAE05A9F502DE22FE0535E0FDCC0E22FDF
:1003C000E33649F40E940F04E889F989A481AA93CD
:1003D0000E941504CFC0E33741F40E940F040E942D
:1003E0001B040E94CA031E2F0AC0E03761F40E945A
:1003F0000F040E941B040E94D6031E2F0860026097
:100400000F7730E035C0E43611F0E93611F40460BE
:1004100002C0E53731F4E4E5F0E0EE83FF8315E058
:100420000DC0E83511F4086004C0E83711F00C94F1
:10043000BA02EEE5F0E0EE83FF8314E002FF14C0A1
:100440000E940F040E942504AB85AA233AF4EA8592
:10045000FB850E941A05EA87FB874DE2403011F0C8
:100460001F5F01C00B7F04C00E940F040E9425047F
:1004700000FD11C0151778F407FF08C002FF04C083
:100480000B7F242F115001C020E301C020E20E9405
:1004900008045150EFCF312F01FF17C03030A1F0C9
:1004A00003FF06C0EE81FF812591EE83FF8305C027
:1004B000AE81BF812D91AE83BF830E94080450306E
:1004C00009F051503150EACF4BC020E3EE81FF815B
:1004D0000E945905E887F987EE81FF813296EE8305
:1004E000FF83E885F985AA85BB85AE17BF0750F065
:1004F0002F5FA885B985EA85FB85EA1BFB0BEA8798
:10050000FB87EFCF2A3328F003FF02C0295F01C029
:10051000295D04FD1AC0213320F4A885B9851197FF
:1005200009F409C0531710F000FF01C013C020E206
:1005300007FF0BC020E3006102FF07C00B7F4A9357
:100540000E941504503009F051500E9408045030A8
:1005500009F051503150A885B985129708F0B5CFF0
:1005600000FF08C0503031F05150E0E2EA930E94A1
:100570001504F8CF10E0DDCEAC85BD850E94500596
:100580000E94690564960895FF92F82E26970E94AE
:1005900064050E942D04309719F4EFEFFFEF23C09C
:1005A000DE0116960E9416058D010E942D04EE8331
:1005B000FF83E0E0E887E987DE011A960E941605CE
:1005C0000E945005FA93EA931A930A93EDE4F1E03E
:1005D000FA93EA93DE011A96A0DE9F01AE81BF81F5
:1005E000E0E0EC93F9010E946B052A96FF900895D4
:1005F000FFE0FA95F1F70895A1B3AF70A1BB919A0E
:100600009098F6DF929AF4DFA0B39298F1DF929A75
:10061000EFDF9298A7FDF5CF0895A07FAB2BA2BB8B
:10062000929A0E94F80292980E94F8020895AA9362
:100630009198A1B3A76FA1BBB2B3BF70A881EDDF42
:10064000A881A295EADF919A0C94C803929A0E941D
:10065000F802E0B392980E94F802E07F08950E94A9
:10066000F802F4DFAE2FF2DF9198E295EA2B0895BD
:10067000AA930E94FC02E881F0E0E758FE4FE08177
:10068000A981AE0F0E9417038980D8802296089511
:100690000E94FC02A2E00E9417030E94FC02ACE050
:1006A0000E9417030E94FC02A1E00E941703E0E0F1
:1006B000DE2E8E2E0895AA93EF93FF93A88168945F
:1006C000AA3019F0E8948C1430F0D394E0E0EA9367
:1006D000AD2DCEDF36F083948FDF909AA8810E94F3
:1006E0001703FF91EF910C94C803BA93AA931A933E
:1006F000A981BA81ED91A983BA831E2FE03019F048
:10070000A12FD9DFF5CF188123960895AA27BB27FB
:100710001197F1F70895AA939198A1B3A76FA1BB80
:10072000B2B3BF70A8810E940D03919A31C0AA9301
:1007300092989098C880E881E058E0937B01E88126
:10074000E054E0937C010E9434040E9434040E942F
:100750003404DCDFA0E2DFDFD9DFA8E20E94390445
:10076000A4E00E943904A5E80E943904A1B3AF7047
:10077000A1BB919A0E942F03E53011F0E0E008C080
:100780000E94FC02A6E00E9417030E944803E1E0D9
:1007900021960895BA93AA93A991B991EE27FF27BC
:1007A0006D91662311F03196FBCF0895BA93AA9309
:1007B000AA27BB27E991F9910590002011F0119625
:1007C000FBCFFD010895A42DB0E0E2E0F1E00E942E
:1007D0003D05BF01A52DB0E0E0E0F1E00E943D0540
:1007E000DB01AE0FBF1FE2B7F0E0EA0FFB1F089579
:1007F0000E9426050E94A3040E9454050895E091DA
:100800006C01F0916D0160916E0170916F0108951E
:100810002A93AD85BE85EF85F88909950895E88905
:10082000F9893497E88BF98B0895AD85BE85EF85FE
:10083000F88909950895A889B98914960E945005E8
:10084000EE83FF83AE81BF810895A889B98914968C
:100850000E945005EA87FB870895DE011C960E94DE
:1008600016050E94500508950E948603A0E30C948B
:100870008B030E9417030C948603552342F45038CF
:1008800011F4E0FF04C03196691F791F6BF050E846
:10089000572711F45F9373C05F3F31F0660F000C70
:1008A00057956795752F08955F9300200AF073C0E0
:1008B0006CC050E8192E1522880F991F9527550FE7
:1008C000879550E8072E0522660F771F7527550F6D
:1008D00067950895689401C0E8945F93F2DF7038DB
:1008E00018F07F3F08F44BC056E1571BAAF451950E
:1008F00058300EF4593030F0EFEFFFEF6FEF7FE735
:1009000077F91AC077275523B9F0EE0FFF1F661F3E
:10091000771F5A95D1F710C07727583028F0EF2F5E
:10092000F62F672F5850F9CF552331F076956795FC
:10093000F795E7955A95D1F700200AF47FD05F919B
:100940000895689401C0E894309760407040B1F019
:10095000002426F0772312F4009470D0172E7EE145
:10096000112032F07A95EE0FFF1F661F111CF9CF90
:10097000EF2FF62F612D5F938ADF5F910895EE27A9
:10098000FF27662777275F910895EFEFFFEF6FE767
:100990007FEF5F910895EFEFFFEF6FE77FE75F91E4
:1009A00008955F9386DF703821F411200AF4EDCFAB
:1009B000F2CF903809F4E3CF01240894970B1BF48D
:1009C000D4F30020F3CF792F1F932F933F934F93AE
:1009D00011241127222733274427552790E2AE17E9
:1009E000BF078607410730F0AE1BBF0B860B410BDC
:1009F000089401C08894551F221F331F111CAA1F81
:100A0000BB1F881F441F9A9551F7F901612D4F9123
:100A10003F912F911F91662332F0550FEE1FFF1F5C
:100A2000661F7A9543F229DF5F9108950024AF0D88
:100A3000B01D0895F195E195F0400895F095609509
:100A40007095E195FF4F6F4F7F4F08956F2F660FA1
:100A5000660B762F0895EA17E1E009F0EE27089576
:100A6000EA17E1E008F0EE270895FA9FF02DEB9FDA
:100A7000F00DEA9FE02DF10D089504D0F6DF0EF49D
:100A8000D9DF0895E894F7FF02C0D4DF6894B7FF78
:100A900006C0A095B095119600F8039400FA089549
:100AA000ED91FC9111970895ED93FD936D937C93D7
:100AB00008950590F491E02D08957A936A93FA933E
:100AC000EA9308955A934A933A932A931A930A936E
:100AD00008955D814C813B812A81198108810895A7
:00000001FF
