:0A0000000C943C000C9400000C94DA
:10000A0000000C9400000C9400000C9400000C9466
:10001A0000000C9400000C9400000C946C000C94EA
:10002A0000000C9400000C9400000C9400000C9446
:10003A007B000C9400000C9400000C9400000C94BB
:10004A0000000C9472000C9400001027E80364006E
:10005A000A0001000010000110000100000080C029
:10006A000100060066000200630168000000F894BF
:10007A00EE27ECBBF1E0FBBFEBBFE5BFF8E1F1BD5A
:10008A00E1BD8DE0A2E0BB27ED938A95E9F780E018
:10009A0094E0A0E6ED930197E9F7EAE6F0E08591AE
:1000AA009591009761F0A591B59105901590BF01C2
:1000BA00F00105900D920197E1F7FB01F0CFEFE512
:1000CA00EDBFE4E0EEBFC0E6D1E00C94C9000E94A7
:1000DA00020111F44394662405C00E94020111F43E
:1000EA0043946624E991EFBFE99118950A92AA937D
:1000FA00BA93EA93EFB7EA93A0916201B0E0A05AEB
:10010A00BE4FE5B1EC930E940B01E2E00E9413019D
:10011A00E02131F0742CE72DEB5FE5BBE3E05E2EC6
:10012A000E940B01E0E00E941301E02141F0EDE0A2
:10013A00E3BFE0E0E2BFE9EDECBFE1E05E2EA091B3
:10014A006101EFEF0E9418010E2EA52DE1E00E9439
:10015A001301E02111F0E2E05E2E52BAA091620191
:10016A00AF5FA0936201A23018F0E0E0E093620171
:10017A00E0916201E05EE7B9369AE991EFBFE99151
:10018A00B991A99109901895E0E0EBBBEABBE8BBED
:10019A00EFEFE7BBE0E0E5BBEFEFE4BBE0E0E2BB9B
:1001AA00EFEFE1BBE0E0E5BFE4BFE9BFEAB9E0E8B1
:1001BA00E8B9E0E0E0BFE0E2E7B9EAEEE6B9E0B7C5
:1001CA00EF71E0BFE0E0EDB9E6BF7894FFCFFFCF73
:1001DA00FFE0FA95F1F70895A1B3AF70A1BB919A28
:1001EA009098F6DF929AF4DFA0B39298F1DF929A90
:1001FA00EFDF9298A7FDF5CF0895EA93EFB7EA9358
:10020A00EFEFE8BB6394E2E1E6150895A09161017E
:10021A00EFEF0E9413010E2EA52D0895EA17E1E0D3
:10022A0009F0EE270895EA17E1E009F4EE270895A8
:00000001FF
