:020000000C945E
:1000020030000C9400000C9400000C9400000C943E
:10001200AB000C9400000C9400000C9400000C94B3
:1000220000000C9400000C9400000C9400000C944E
:1000320000000C9400000C9460000C9400000C94DE
:1000420000000C9400000C9400000C9400000C942E
:100052000000000000000400040054000000F894B6
:10006200EE27ECBBF1E0FBBFEBBFE5BFF8E1F1BD72
:10007200E1BD8DE0A2E0BB27ED938A95E9F780E030
:1000820094E0A0E6ED930197E9F7E8E5F0E08591C9
:100092009591009761F0A591B59105901590BF01DA
:1000A200F00105900D920197E1F7FB01F0CFEFE52A
:1000B200EDBFE4E0EEBFC0E6D1E00C94B2008A935B
:1000C200AA93BA93EA93EFB7EA93A0916201B0E0E0
:1000D200A05ABE4FE5B1EC93A0916201AF5FA0932D
:1000E2006201A23018F0E0E0E0936201E091620167
:1000F200E05AE7B981E08A95F1F7E0916001E8BB47
:10010200A0916001AF3FA1F4E2E0E51531F4E0E037
:10011200E5BD9098E3E05E2E0AC0552041F4EFE081
:10012200E5BDE0E0E4BDE9EDE3BD5394909A0AC079
:10013200E1E0E51519F4E2E05E2E04C0E3E0E51526
:1001420009F45524369AE991EFBFE991B991A99141
:1001520089911895EA93EFB74394919AEFBFE99189
:100162001895E0E0EBBBEABBE8BBEFEFE7BBE0E0F2
:10017200E5BBEFEFE4BBE0E0E2BBEFEFE1BBE0E0C9
:10018200E3BFE2BFECBFE2BDE5BFE4BFE9BFEAB94E
:10019200E0E8E8B9E0E0E0BFE0E6E7B9EAEEE6B9B8
:1001A200E0B7EF71E0BFE0E0EDB9E6BF789475BA71
:1001B200E4B5E13059F4939B02C0939801C0939A3D
:1001C2004394E2E1E41511F444247394F0CFFFCF99
:00000001FF
