:060000000C942F000C948B
:1000060000000C9400000C9400000C946D000C94FD
:1000160000000C9400000C9400000C9400000C945A
:1000260000000C9400000C9400000C9400000C944A
:1000360000000C9400000C9400000C9400000C943A
:1000460000000C9400000C9400000C9400000000CA
:100056000100050054000000F894EE27ECBBF1E027
:10006600FBBFEBBFE5BFF8E1F1BDE1BD8DE0A2E06E
:10007600BB27ED938A95E9F780E094E0A0E6ED933F
:100086000197E9F7E6E5F0E085919591009761F033
:10009600A591B59105901590BF01F00105900D92BF
:1000A6000197E1F7FB01F0CFEFE5EDBFE4E0EEBF2E
:1000B600C0E6D1E00C947E00AA93E881E066E7B939
:1000C6008DE08A95F1F7369A349BFECF349AE5B1E6
:1000D60021960895EA93EFB7EA935394EFEFE2BBC4
:1000E600E2E1E51521F45524E5B3EF5FE5BBE991BF
:1000F600EFBFE9911895E0E0EBBBEABBE8BBEFEF99
:10010600E7BBE0E0E5BBEFEFE4BBE0E0E2BBE1BB71
:10011600E3BFE2BFECBFE5BFE4BFE9BFEAB9E0E891
:10012600E8B9E0E0E0BFE0E6E7B9E2EAE6B9E0B761
:10013600EF71E0BFEFE0E5BDE0E0E4BDE9EDE3BD72
:10014600E0E0EDB9E6BFA0E0B7DFE8BBFCCFFFCF4C
:00000001FF
