:020000000C945E
:100002002F000C9400000C9400000C9400000C943F
:1000120000000C9400000C9400000C9400000C945E
:1000220000000C945F000C9400000C9400000C94EF
:1000320000000C9400000C9400000C9400000C943E
:1000420000000C9400000C9400000C9400000C942E
:10005200000000000200080054000000F894EE279F
:10006200ECBBF1E0FBBFEBBFE5BFF8E1F1BDE1BDE9
:100072008DE0A2E0BB27ED938A95E9F780E094E05A
:10008200A0E6ED930197E9F7E6E5F0E08591959119
:10009200009761F0A591B59105901590BF01F0010F
:1000A20005900D920197E1F7FB01F0CFEFE5EDBF6F
:1000B200E4E0EEBFC0E6D1E00C947900EA93FA9353
:1000C200EFB7EA93F20131962F01E991EFBFF9916F
:1000D200E9911895AA93E881E062E7B98BE18A95E4
:1000E200F1F7369A349BFECF349AE5B12196089502
:1000F200E0E0EBBBEABBE8BBEFEFE7BBE0E0E5BB70
:10010200EFEFE4BBE0E0E2BBE1BBE3BFE2BFECBF89
:10011200EFBDEEBDEDBDECBDE7BDE6BDEBBDEABD9D
:10012200E9BDE8BDE2BDE5BDE4BDE3BDE5BFE4BFB9
:10013200E9BFEAB9E0E8E8B9E0E0E0BFE0E2E7B948
:10014200E3E8E6B9E0E0EDB9E6BFE1E0F0E0E815AA
:10015200F905A9F4A0E0BEDFE8BBA0E0BBDFE0E068
:10016200E3BFF201AFEFB0E00E94E600DF01E2B7C9
:10017200F0E0EA0FFB1F3F01E2E0F0E04F01082C44
:10018200092859F4A0E0A6DFE2E0E3BFE1E0F0E0F5
:100192004F01AAE0B0E00E94D000D7CFFFCF109667
:1001A20039F080ED97E00197F1F7A8951197C9F71B
:1001B2000895F195E195F0400895FA9FF02DEB9F97
:1001C200F00DEA9FE02DF10D089504D0F6DF0EF454
:1001D200F0DF0895E894F7FF02C0EBDF6894B7FF01
:1001E20006C0A095B095119600F8039400FA089500
:00000001FF
