:0C0000000C9496000C9400000C9400007E
:10000C000C9400000C9400000C9400000C94000064
:10001C000C9400000C9400000C9400000C94000054
:10002C000C9400000C9400000C9400000C94000044
:10003C000C9400000C9400000C9400000C94000034
:10004C000C9400000C9400001027E80364000A00D4
:10005C000100001000011000010000000000000071
:10006C0000000000253032643A20203A2020002085
:10007C00203A253032643A20200020202F20202FD7
:10008C0032302530326400253032753A25303275E5
:10009C003A253032750020202F253032642F202055
:1000AC00202000253032642F20202F2020202000FB
:1000BC00616C61726D28253032643A20203A202020
:1000CC002900616C61726D2820203A253032643A27
:1000DC002020290020202F253032642F20200025BD
:1000EC003032642F20202F202000253032752F2510
:1000FC003032752F323025303275002A0000010065
:10010C002D4E414E00494E46000080C00A000400AE
:10011C006600010084010A0102008801160100003A
:10012C00F894EE27ECBBF1E0FBBFEBBFE5BFF8E1C9
:10013C00F1BDE1BD8DE0A2E0BB27ED938A95E9F717
:10014C0080E094E0A0E6ED930197E9F7E8E1F1E0B7
:10015C0085919591009761F0A591B59105901590B9
:10016C00BF01F00105900D920197E1F7FB01F0CF73
:10017C00EFE5EDBFE4E0EEBFC0E6D1E00C94000289
:10018C00F20131962F01E6E0F0E0E415F50519F4E3
:10019C004424552454C00E94D404F201E130A0E060
:1001AC00FA0729F40E94F7050E94FC053EC0E230D4
:1001BC00A0E0FA0729F40E94F7050E940E0635C04C
:1001CC00E330A0E0FA07A1F4E0E7F1E0FA93EA9358
:1001DC000E942006A0E00E9410050E94F7050E94D4
:1001EC0032060E944D060E945106A0E7B1E021C0E4
:1001FC00E430A0E0FA0749F40E94F705E2EAF0E0E7
:10020C00FA93EA93E09181010AC0E530A0E0FA0785
:10021C0091F40E94F705EFEAF0E00E945606FF27E2
:10022C00662777270E945B06A1E00E941005A0E6D6
:10023C00B1E00E946005A4EFB1E00E94710708953F
:10024C00F30131963F01E3E0F0E0E615F70519F410
:10025C006624772425C00E94D404F301E130A0E089
:10026C00FA0741F40E94F705ECEBF0E0FA93EA93FD
:10027C00EB2D0BC0E230A0E0FA0771F40E94F705F9
:10028C00EEECF0E0FA93EA93ED2DFF276627772743
:10029C000E945B060E946406A4EFB1E00E94710705
:1002AC000895E1E0F0E0E415F50559F49394E8E1E4
:1002BC00E91509F499240E9468060E94FC050E9425
:1002CC007206E2E0F0E0E615F70599F4D394ECE35E
:1002DC00ED1509F4DD240E94F705EEECF0E0FA933D
:1002EC00EA93ED2DFF27662777270E945B060E9475
:1002FC006406E1E0F0E0E615F70599F4B394E8E163
:10030C00EB1509F4BB240E94F705ECEBF0E0FA9333
:10031C00EA93EB2DFF27662777270E945B060E9446
:10032C006406E2E0F0E0E415F50559F48394ECE39F
:10033C00E81509F488240E9468060E940E060E94A3
:10034C007206E3E0F0E0E415F505A9F40E947506E9
:10035C00E0918001EF5FE0938001A0918001A436D1
:10036C0019F4E0E0E09380010E9485060E942006CB
:10037C00A1E00E947206E4E0F0E0E415F505D1F48A
:10038C000E947506E0918101EF5FE0938101A091DD
:10039C008101AD3019F4E1E0E09381010E94850602
:1003AC00E0EEF0E0FA93EA930E9492060E949A061D
:1003BC000E944D06E5E0F0E0E415F505D1F40E944D
:1003CC007506E0918201EF5FE0938201A0918201BA
:1003DC00A03219F4E1E0E09382010E948506EBEE75
:1003EC00F0E00E9456060E949F060E949A060E9408
:1003FC004D060895E0E0E5BBE4BBE0EFE8BBEFEFB2
:10040C00E7BBEFE0EBBBE0EFEABB0E942007E0E0CC
:10041C00EA93EA93A0E00E946304A0E10E94930592
:10042C00E0E00E94A506E0E0EA93EA93A0E00E94D7
:10043C009604E0E0EA93EA93E1E0EA93ADE00E94EF
:10044C00BF04A4E1B0E00E947107A0E0C899A1E04C
:10045C000E94A9060E94AE0609F092DEC99B21DF1C
:10046C00A0E0CA99A1E00E94A906D201E0E0F0E068
:10047C000E948D07E02109F0E3DECB9BA094D20112
:10048C00E0E0F0E00E948D070E2E0E94AE0611F403
:10049C000C94B202E9E0F0E0FA93EA93E8E0F0E0C1
:1004AC00FA93EA93ACE0B0E00E947D040E947506DA
:1004BC00E82DAD2D0E948307EA210E2EE92DAB2DE0
:1004CC000E9483070E22AC2DE0E00E948307E021FE
:1004DC0009F0DF9AAA2D0E94A906E82DAD2D0E94E5
:1004EC0088070E2AE92DAB2D0E948807E02909F018
:1004FC00DF980E94F7050E943206E0E7F1E0FA93DC
:10050C00EA93E6EFF0E00E9456060E949F060E94D6
:10051C009206E09180010E949F068CE00E942F04BD
:10052C0060960E942405AA2031F0EFE00E94A506F7
:10053C00A7E0B1E005C0EFE00E94A506A9E7B0E096
:10054C000E946F05E0E0EA930E9464060E94510647
:10055C00A0E7B1E00E946005A8ECB0E00E94710732
:10056C0074CFFFCFBA93AA931A930A93AA81BB8133
:10057C0012960E949307309759F1AA81BB81149669
:10058C000E9493078F01309761F00230E0E01E0764
:10059C00F0F0F80131978F01AA81BB811496ED938D
:1005AC00FC93AA81BB811296ED91FD913196FE933D
:1005BC00EE933197AC81A083AA81BB810E949307F3
:1005CC00FF232AF0ED91FD913196FE93EE9306C038
:1005DC00AA81BB81EFEFFFEFED93FC9319810881AA
:1005EC0025960895BA93AA9326970E94A00710E027
:1005FC00AC85BD85E0E0F0E0ED93FC93EA89FB89E6
:10060C003196EA8BFB8B3197E4912E2FE03011F46D
:10061C000C942704E12FE03039F4253211F411E069
:10062C0002C00E94B5060CC1E130A9F4253219F4C0
:10063C000E94B50604C112E040E000E02D3211F436
:10064C0001E0FEC02B3211F44BE2FAC0203211F45F
:10065C0040E2F6C002C0E23039F450E013E020333F
:10066C0011F40068EDC004C0E33011F00C942604C2
:10067C00203310F02A3308F007C0AAE05A9F502DFF
:10068C00E22FE0535E0FDCC0E22FE33649F40E9408
:10069C00BC06E889F989A481AA930E94C206CFC03E
:1006AC00E33741F40E94BC060E94C8060E94C705AD
:1006BC001E2F0AC0E03761F40E94BC060E94C806D7
:1006CC000E94D3051E2F086002600F7730E035C002
:1006DC00E43611F0E93611F4046002C0E53731F468
:1006EC00E4E5F0E0EE83FF8315E00DC0E83511F48E
:1006FC00086004C0E83711F00C942504EEE5F0E036
:10070C00EE83FF8314E002FF14C00E94BC060E941B
:10071C00D206AB85AA233AF4EA85FB850E947F07B3
:10072C00EA87FB874DE2403011F01F5F01C00B7F61
:10073C0004C00E94BC060E94D20600FD11C0151711
:10074C0078F407FF08C002FF04C00B7F242F115060
:10075C0001C020E301C020E20E94B5065150EFCF4A
:10076C00312F01FF17C03030A1F003FF06C0EE811E
:10077C00FF812591EE83FF8305C0AE81BF812D9152
:10078C00AE83BF830E94B506503009F051503150F2
:10079C00EACF4BC020E3EE81FF810E949707E887E8
:1007AC00F987EE81FF813296EE83FF83E885F98528
:1007BC00AA85BB85AE17BF0750F02F5FA885B985FA
:1007CC00EA85FB85EA1BFB0BEA87FB87EFCF2A3315
:1007DC0028F003FF02C0295F01C0295D04FD1AC087
:1007EC00213320F4A885B985119709F409C0531752
:1007FC0010F000FF01C013C020E207FF0BC020E384
:10080C00006102FF07C00B7F4A930E94C206503062
:10081C0009F051500E94B506503009F0515031503A
:10082C00A885B985129708F0B5CF00FF08C05030E5
:10083C0031F05150E0E2EA930E94C206F8CF10E08A
:10084C00DDCEAC85BD850E9493070E94A7076496F8
:10085C000895FF92F82E26970E94A2070E94DA06AE
:10086C00309719F4EFEFFFEF23C0DE0116960E94CC
:10087C007B078D010E94DA06EE83FF83E0E0E887B8
:10088C00E987DE011A960E947B070E949307FA9370
:10089C00EA931A930A93E8EBF2E0FA93EA93DE01F7
:1008AC001A96A0DE9F01AE81BF81E0E0EC93F901C6
:1008BC000E94A9072A96FF900895AA93EA81E370F3
:1008CC00EA83E981E03019F0EA81E061EA83E881AA
:1008DC00E03019F0EA81E068EA830E94E106A7E0C3
:1008EC000E945907AA810E94E6060C948005BA93CF
:1008FC00AA930E94E106A0E00E94E6060E94EA0686
:10090C000E94F2060E94F9060E94FF06AE2F0E947A
:10091C00E005AC81BD81EC930E94340726960895C6
:10092C00AA930E94E106A0E00E9405070E940B0713
:10093C000E9411070E94E6060C948005BA93AA93B4
:10094C000E94E106A3E00E94E6060E94EA06AE8140
:10095C00BF81EC930E94F906AC81BD81EC930E949F
:10096C00F9060E94FF060E94F2060E9434072896A0
:10097C000895AA930E94E106A3E00E945907AB8157
:10098C000E9411070E940B070E9405070E94E606B1
:10099C0024960895FFE0FA95F1F70895A1B3AF708E
:1009AC00A1BB919A9098F6DF929AF4DFA0B392983B
:1009BC00F1DF929AEFDF9298A7FDF5CF0895A07F13
:1009CC00AB2BA2BB929A0E94D00492980E94D004A6
:1009DC000895AA939198A1B3A76FA1BBB2B3BF70AE
:1009EC00A881EDDFA881A295EADF919A0C94C50548
:1009FC00929A0E94D004E0B392980E94D004E07FB7
:100A0C0008950E94D004F4DFAE2FF2DF9198E295A6
:100A1C00EA2B0895AA930E94D404E881F0E0E857E9
:100A2C00FE4FE081A981AE0F0E94EF04E981E093B3
:100A3C008C01E881E0938D01229608950E94D404E4
:100A4C00A2E00E94EF040E94D404ACE00E94EF04E8
:100A5C000E94D404A1E00E94EF04E0E0E0938D0139
:100A6C00E0938C010895AA93EF93FF93A881689467
:100A7C00AA3039F0E894E0918E01A0918C01AE1768
:100A8C0058F0E0918D01EF5FE0938D01E0E0EA9387
:100A9C00A0918D01BFDF56F0E0918C01EF5FE093E8
:100AAC008C017CDF909AA8810E94EF04FF91EF915A
:100ABC000C94C505BA93AA931A93A981BA81ED91A6
:100ACC00A983BA831E2FE03019F0A12FCCDFF5CF0C
:100ADC0010C0BA93AA931A93E981FA813196E983EB
:100AEC00FA833197E4911E2FE03019F0A12FBBDF70
:100AFC00F3CF188123960895AA27BB271197F1F7F6
:100B0C000895AA939198A1B3A76FA1BBB2B3BF707C
:100B1C00A8810E94E504919A32C0AA939298909869
:100B2C00E881E0938E01E058E0938A01E881E0547B
:100B3C00E0938B010E9417070E9417070E9417076A
:100B4C00DBDFA0E2DEDFD8DFA8E20E941C07A4E016
:100B5C000E941C07A5E80E941C07A1B3AF70A1BBA3
:100B6C00919A0E940705E53011F0E0E008C00E9460
:100B7C00D404A6E00E94EF040E942405E1E0219633
:100B8C000895BA93AA93A991B991EE27FF276D9175
:100B9C00662311F03196FBCF0895BA93AA93AA2736
:100BAC00BB27E991F9910590002011F01196FBCF2C
:100BBC00FD010895AA93E881E295EF70AE2FAA0F7C
:100BCC00AA0FEA0FEE0FA991AF70EA0F0895AA933E
:100BDC00A991EE27AA5012F0E05FFCCFA65FEA0FB6
:100BEC000895E0E6F1E0FA93EA930895E0E7F0E087
:100BFC00FA93EA93E92DFF27662777270E949B0734
:100C0C0084E00E942F042896E0E0EA93A0E0089587
:100C1C00EBE7F0E0FA93EA93E82DFF2766277727B6
:100C2C000E949B0784E00E942F042896E0E0EA9340
:100C3C00A0E00895E6E8F0E0FA93EA93E0918001F1
:100C4C00FF27662777270E949B0784E00E942F04CA
:100C5C002896E0E0EA930895E3E9F0E0FA93EA934A
:100C6C00E92DFF27662777270E949B07E82DFF2792
:100C7C00662777270E949B07EC2DFF27662777278F
:100C8C000E949B078CE00E942F0460960895A0E6BA
:100C9C00B1E00C946005E0E0EA93A1E00C9410053F
:100CAC00FA93EA93E091820108950E949B0784E0F5
:100CBC000E942F042896E0E0EA930895A0E00E9499
:100CCC001005E5CF9A928A92AC2D0E949604AAE068
:100CDC00B0E00E94710785CF0E941005D8CFE3E8E1
:100CEC00F1E0FA93EA93E2E8F1E0FA93EA93E1E8AF
:100CFC00F1E0FA93EA93A0E8B1E00C94A404E0E0EC
:100D0C00EA93E0918201EA93E0918101EA93A09148
:100D1C0080010E94BF0465CFE0918101FF27662707
:100D2C0077270E949B07089584E00E942F04289641
:100D3C00B2CFFF27662777270E949B070895EA9377
:100D4C00A0E00C941005E0E00E9483070E2E08959D
:100D5C00D301E0E0F0E00E948D07E02108952A9392
:100D6C00AD85BE85EF85F88909950895E889F989DF
:100D7C003497E88BF98B0895AD85BE85EF85F8899E
:100D8C0009950895A889B98914960E949307EE8352
:100D9C00FF83AE81BF810895A889B98914960E94FA
:100DAC009307EA87FB870895DE011C960E947B0758
:100DBC000E94930708950E942507A0ED0C945907F3
:100DCC000E9459070C9434070E942507A1ED0E943C
:100DDC005907A1E00C943E07AE2F0E94E005A881B4
:100DEC00B981EC930895A1E00E943E07AE2F0C94BC
:100DFC00E005AA81BB81EC93A0E00C943E070E9415
:100E0C005907A881E4DEAE2F08950E945907A981E5
:100E1C00DEDEAE2F08950E945907AA81D8DEAE2FD0
:100E2C0008950E948205A0E30C9487050E94EF04AC
:100E3C000C948205A898A998A09AA19815C0A1987D
:100E4C00A098EE270000999B0895989B089504D0D4
:100E5C00A19A02D0A09AE1E067E007C0A19AA09AFB
:100E6C0003D0A098F9DFA1986DE06A95F1F7089589
:100E7C0078E0A098F1DF989BFECFEEDF88949999EB
:100E8C000894A09AF1DFEE1F7A9599F77A2F7723C1
:100E9C0011F4A19801C0A19ADFDFA098E5DFA09A18
:100EAC00DBDFA198D9CF78E0AA0F10F4A19801C08C
:100EBC00A19ADADFA098D0DF989BFECFCDDFA09A65
:100ECC007A9591F7A198C8DFA098CEDFE1E09999C7
:100EDC00EE27A09AC1CF109639F088EE93E00197D7
:100EEC00F1F7A8951197C9F708950024AF0DB01D1F
:100EFC000895F195E195F0400895EA17E1E009F0C5
:100F0C00EE270895EA17E1E009F4EE270895EA17B1
:100F1C00FB07E1E009F0EE270895ED91FC911197A4
:100F2C0008950590F491E02D08957A936A93FA93BD
:100F3C00EA9308955A934A933A932A931A930A93ED
:100F4C0008955D814C813B812A8119810881089526
:00000001FF
