:060000000C9469000C9451
:1000060000000C9400000C9400000C9400000C946A
:1000160000000C9400000C9400000C9400000C945A
:1000260000000C9400000C9400000C9400000C944A
:1000360000000C9400000C9400000C9400000C943A
:1000460000000C9400000C9400000C940000102793
:10005600E80364000A00010000100001100001001E
:100066000000000000000000000020203A25303289
:10007600643A303000253032643A20203A2020009D
:1000860074696D653A253032643A253032643A2512
:1000960030326400646174653A3230253032643A35
:1000A600253032643A253032640001002D4E414E2F
:1000B60000494E46000080C00A00040066000100A8
:1000C6008E01B00002009201BC000000F894EE27F9
:1000D600ECBBF1E0FBBFEBBFE5BFF8E1F1BDE1BD75
:1000E6008DE0A2E0BB27ED938A95E9F780E094E0E6
:1000F600A0E6ED930197E9F7EEEBF0E08591959197
:10010600009761F0A591B59105901590BF01F0019A
:1001160005900D920197E1F7FB01F0CFEFE5EDBFFA
:10012600E4E0EEBFC0E6D1E00C949900E0E0EBBB62
:10013600EABBE8BBE7BBE5BBE1E0E4BBE0E0E2BB72
:10014600E1BBE5BFE4BFE9BF0E94A405E0E0EA9396
:10015600EA93A0E00E9482030E94A905E0E0EA93E8
:10016600EA93A0E00E94B503E0E0EA93EA93E5E0B3
:10017600EA93AAE00E94DE03A0E10E949804C89BCD
:100186000BC06394ECE3E61509F466247A926A924E
:10019600A92D0E94B50328C0C99B0BC07394E8E142
:1001A600E71509F477247A926A92A92D0E94B5037D
:1001B6001BC0CC9B07C0BA92ED2DEF5FEA93AA92C3
:1001C600A82D10C0CD9B07C0BA92DA92EA2DEF5F38
:1001D600EA93A82D07C0CE9B07C0BA92DA92AA92DC
:1001E600A82DAF5F0E94DE03B09B02C00E94FC04F4
:1001F600E0918C01F0918D01A0E0B0E00E94120622
:100206000E2E0E940505E5E0F0E00E941206E021B0
:1002160011F40C944E010E9441040E9405051197A9
:1002260091F4ECE7F1E0FA93EA93E0E7F0E0FA9371
:10023600EA93E52D0E940A05B1995394ECE3E5157E
:1002460009F4552421C00E940505129791F4ECE7A4
:10025600F1E0FA93EA93EBE7F0E0FA93EA93E42D00
:100266000E940A05B1994394E8E1E41509F444248F
:100276000BC00E940505139739F40E941C05E0E0A7
:10028600E0938C01E0938D010E942305B09B02C090
:100296000E94FC04ADCFE7E0F0E0FA93EA93E6E0D3
:1002A600F0E0FA93EA93A9E0B0E00E949C03EBE049
:1002B600F0E0FA93EA93EDE0F0E0FA93EA93EAE0ED
:1002C600F0E0FA93EA93A8E0B0E00E94C303A0919D
:1002D6008A01B0918B01E1E0F0E00E940C060E2E3F
:1002E600E52DA62D0E9407060E94270531F0E2E0C3
:1002F600F0E0E0938A01F0938B01A0918A01B0911E
:100306008B01E2E0F0E00E940C060E2EE52DF0E0F7
:100316003196A62DB0E00E940C060E94270511F02A
:100326000E941C05E0E6F1E0FA93EA93E6E8F0E0C5
:10033600FA93EA93E72D0E943305E62D0E943305D2
:10034600E92D0E9433058CE00E944E036096EEE68E
:10035600F1E0FA93EA93EAE9F0E0FA93EA93E82DFA
:100366000E943305EA2D0E943305ED2D0E943305C8
:100376008CE00E944E0360960E944104E0E0EA93FE
:10038600A0E00E942F04A0E6B1E00E947604E0E01F
:10039600EA93A1E00E942F04AEE6B1E00E94760443
:1003A6000E942305ECCEFFCFBA93AA931A930A9321
:1003B600AA81BB8112960E941806309759F1AA812C
:1003C600BB8114960E9418068F01309761F00230A7
:1003D600E0E01E07F0F0F80131978F01AA81BB819A
:1003E6001496ED93FC93AA81BB811296ED91FD9133
:1003F6003196FE93EE933197AC81A083AA81BB819F
:100406000E941806FF232AF0ED91FD913196FE9386
:10041600EE9306C0AA81BB81EFEFFFEFED93FC934D
:100426001981088125960895BA93AA9326970E9462
:10043600250610E0AC85BD85E0E0F0E0ED93FC9389
:10044600EA89FB893196EA8BFB8B3197E4912E2F53
:10045600E03011F40C944603E12FE03039F42532F4
:1004660011F411E002C00E9439050CC1E130A9F473
:10047600253219F40E94390504C112E040E000E07B
:100486002D3211F401E0FEC02B3211F44BE2FAC01A
:10049600203211F440E2F6C002C0E23039F450E0F6
:1004A60013E0203311F40068EDC004C0E33011F00E
:1004B6000C944503203310F02A3308F007C0AAE055
:1004C6005A9F502DE22FE0535E0FDCC0E22FE33639
:1004D60049F40E944005E889F989A481AA930E94FB
:1004E6004605CFC0E33741F40E9440050E944C0503
:1004F6000E94CC041E2F0AC0E03761F40E9440051A
:100506000E944C050E94D8041E2F086002600F77D7
:1005160030E035C0E43611F0E93611F4046002C06B
:10052600E53731F4E4E5F0E0EE83FF8315E00DC036
:10053600E83511F4086004C0E83711F00C94440360
:10054600EEE5F0E0EE83FF8314E002FF14C00E94A4
:1005560040050E945605AB85AA233AF4EA85FB8539
:100566000E940306EA87FB874DE2403011F01F5FC9
:1005760001C00B7F04C00E9440050E94560500FD85
:1005860011C0151778F407FF08C002FF04C00B7FDF
:10059600242F115001C020E301C020E20E9439053A
:1005A6005150EFCF312F01FF17C03030A1F003FFBC
:1005B60006C0EE81FF812591EE83FF8305C0AE81E3
:1005C600BF812D91AE83BF830E943905503009F05B
:1005D60051503150EACF4BC020E3EE81FF810E949B
:1005E6001C06E887F987EE81FF813296EE83FF834A
:1005F600E885F985AA85BB85AE17BF0750F02F5F42
:10060600A885B985EA85FB85EA1BFB0BEA87FB878C
:10061600EFCF2A3328F003FF02C0295F01C0295D0E
:1006260004FD1AC0213320F4A885B985119709F471
:1006360009C0531710F000FF01C013C020E207FFE6
:100646000BC020E3006102FF07C00B7F4A930E94A4
:100656004605503009F051500E943905503009F0D6
:1006660051503150A885B985129708F0B5CF00FFD3
:1006760008C0503031F05150E0E2EA930E9446053E
:10068600F8CF10E0DDCEAC85BD850E9418060E942D
:100696002C0664960895FF92F82E26970E94270648
:1006A6000E945E05309719F4EFEFFFEF23C0DE01DD
:1006B60016960E94FF058D010E945E05EE83FF835C
:1006C600E0E0E887E987DE011A960E94FF050E94AE
:1006D6001806FA93EA931A930A93E7EDF1E0FA9370
:1006E600EA93DE011A96A0DE9F01AE81BF81E0E0AB
:1006F600EC93F9010E942E062A96FF900895AA937C
:10070600EA81E370EA83E981E03019F0EA81E06189
:10071600EA83E881E03019F0EA81E068EA830E9422
:100726006505A7E00E94DD05AA810E946A050C9472
:100736008504BA93AA930E946505A0E00E946A0503
:100746000E946E050E9476050E947D050E94830523
:10075600AE2F0E94E504AC81BD81EC930E94B805E2
:1007660026960895AA930E946505A0E00E94890531
:100776000E948F050E9495050E946A050C948504C7
:10078600BA93AA930E946505A3E00E946A050E9497
:100796006E05AE81BF81EC930E947D05AC81BD8163
:1007A600EC930E947D050E9483050E9476050E94B7
:1007B600B80528960895AA930E946505A3E00E94AD
:1007C600DD05AB810E9495050E948F050E94890573
:1007D6000E946A0524960895FFE0FA95F1F70895B8
:1007E600A1B3AF70A1BB919A9098F6DF929AF4DF0D
:1007F600A0B39298F1DF929AEFDF9298A7FDF5CF1A
:100806000895A07FAB2BA2BB929A0E94EF03929809
:100816000E94EF030895AA939198A1B3A76FA1BB75
:10082600B2B3BF70A881EDDFA881A295EADF919AE5
:100836000C94CA04929A0E94EF03E0B392980E9425
:10084600EF03E07F08950E94EF03F4DFAE2FF2DF9F
:100856009198E295EA2B0895AA930E94F303E88102
:10086600F0E0EE56FE4FE081A981AE0F0E940E0425
:10087600C980E881E0939601229608950E94F303C9
:10088600A2E00E940E040E94F303ACE00E940E0454
:100896000E94F303A1E00E940E04E0E0E0939601BB
:1008A600CE2E0895AA93EF93FF93A8816894AA3059
:1008B60029F0E894E0919701CE1658F0E091960160
:1008C600EF5FE0939601E0E0EA93A0919601C4DF22
:1008D60036F0C39485DF909AA8810E940E04FF919A
:1008E600EF910C94CA04BA93AA931A93A981BA8178
:1008F600ED91A983BA831E2FE03019F0A12FD2DF24
:10090600F5CF188123960895AA27BB271197F1F7EB
:100916000895AA939198A1B3A76FA1BBB2B3BF7074
:10092600A8810E940404919A32C0AA939298909842
:10093600E881E0939701E058E0939401E881E05460
:10094600E09395010E949B050E949B050E949B05D2
:10095600DBDFA0E2DEDFD8DFA8E20E94A005A4E08C
:100966000E94A005A5E80E94A005A1B3AF70A1BB97
:10097600919A0E942604E53011F0E0E008C00E943A
:10098600F303A6E00E940E040E944104E1E02196D2
:100996000895BA93AA93A991B991EE27FF276D916D
:1009A600662311F03196FBCF0895BA93AA93AA272E
:1009B600BB27E991F9910590002011F01196FBCF24
:1009C600FD010895AA93E881E295EF70AE2FAA0F74
:1009D600AA0FEA0FEE0FA991AF70EA0F0895AA9336
:1009E600A991EE27AA5012F0E05FFCCFA65FEA0FAE
:1009F6000895ACE8B1E0ED91FD913196FE93EE934A
:100A060031970895A0918C01B0918D010895FF272B
:100A1600662777270E94200684E00E944E032896C8
:100A2600E0E0EA93A0E00E942F04ACE7B1E00C946A
:100A36007604E1E0F0E0E0938A01F0938B010895FB
:100A4600A6E9B0E00C94F5050E22E42DA72D0E9430
:100A560007060E22A92DE0E00E940706E021089570
:100A6600FF27662777270E94200608952A93AD85DB
:100A7600BE85EF85F88909950895E889F98934973F
:100A8600E88BF98B0895AD85BE85EF85F8890995C4
:100A96000895A889B98914960E941806EE83FF83E3
:100AA600AE81BF810895A889B98914960E94180657
:100AB600EA87FB870895DE011C960E94FF050E94C7
:100AC600180608950E94A905A0ED0C94DD050E9464
:100AD600DD050C94B8050E94A905A1ED0E94DD056F
:100AE600A1E00C94C205AE2F0E94E504A881B9814D
:100AF600EC930895A1E00E94C205AE2F0C94E50484
:100B0600AA81BB81EC93A0E00C94C2050E94DD058E
:100B1600A88165DFAE2F08950E94DD05A9815FDFFC
:100B2600AE2F08950E94DD05AA8159DFAE2F0895E4
:100B36000E948704A0E30C948C040E940E040C947B
:100B46008704AC98AB98A49AA39815C0A398A498C8
:100B5600EE2700009B9B08959C9B089504D0A39AC2
:100B660002D0A49AE1E06DE007C0A39AA49A03D04C
:100B7600A498F9DFA3986BE16A95F1F7089578E0F8
:100B8600A498F1DF9C9BFECFEEDF88949B99089496
:100B9600A49AF1DFEE1F7A9599F77A2F772311F44D
:100BA600A39801C0A39ADFDFA498E5DFA49ADBDF50
:100BB600A398D9CF78E0AA0F10F4A39801C0A39AFE
:100BC600DADFA498D0DF9C9BFECFCDDFA49A7A957E
:100BD60091F7A398C8DFA498CEDFE1E09B99EE27B2
:100BE600A49AC1CF109639F080ED97E00197F1F7FE
:100BF600A8951197C9F708950024AF0DB01D089563
:100C0600F195E195F0400895EA17E1E009F0EE2745
:100C16000895EA17FB07E1E009F0EE270895AE17FD
:100C2600BF07E1E00CF0EE270895ED91FC911197D6
:100C360008950590F491E02D08957A936A93FA93B6
:100C4600EA9308955A934A933A932A931A930A93E6
:100C560008955D814C813B812A811981088108951F
:00000001FF
