:080000000C9443000C94000075
:100008000C9400000C9400000C9473000C940000F5
:100018000C9400000C9400000C9400000C94000058
:100028000C9400000C9400000C9400000C94000048
:100038000C9400000C9400000C9400000C94000038
:100048000C9400000C9400000C9400001027E803A6
:1000580064000A000100001000011000010054694A
:100068006D65203D20253032643A253032643A25CA
:100078003032640080C002006A017C000000F894FD
:10008800EE27ECBBF1E0FBBFEBBFE5BFF8E1F1BD4C
:10009800E1BD8DE0A2E0BB27ED938A95E9F780E00A
:1000A80094E0A0E6ED930197E9F7EEE7F0E085919B
:1000B8009591009761F0A591B59105901590BF01B4
:1000C800F00105900D920197E1F7FB01F0CFEFE504
:1000D800EDBFE4E0EEBFC0E6D1E00C94BA000A92AE
:1000E8001A92FA926A937A938A939A93AA93BA93F2
:1000F800EA93FA93EFB7EA93EBE3E51569F455242D
:10010800E41541F44424E7E1E71511F4772401C02C
:10011800739401C0439401C05394E0E6F1E0FA936C
:10012800EA93E6E6F0E0FA93EA93E72D0E945E038D
:10013800E42D0E945E03E52D0E945E038CE00E9480
:10014800110360960E941801A0E6B1E00E944501E3
:10015800E991EFBFF991E991B991A99199918991A3
:1001680079916991F990199009901895E8E0E2BDA4
:10017800E5E0E5BDE0E0E4BDE3BDE0E4E9BFA0E122
:100188000E9467017894FFCFFFE0FA95F1F7089590
:10019800AAB3AF70AABBD99AD898F6DFDA9AF4DF77
:1001A800A9B3DA98F1DFDA9AEFDFDA98A7FDF5CF8D
:1001B8000895A07FAB2BABBBDA9A0E94C800DA98EF
:1001C8000E94C8000895AA93D998AAB3A76FAABB9A
:1001D800BBB3BF70A881EDDFA881A295EADFD99AE9
:1001E8000C949801DA9A0E94C800E9B3DA980E9440
:1001F800C800E07F08950E94C800F4DFAE2FF2DF48
:10020800D998E295EA2B0895AA930E94CC00E88138
:10021800F0E0E659FE4FE081A981AE0F0E94E700A9
:1002280069809880229608950E94CC00A2E00E94DE
:10023800E7000E94CC00ACE00E94E7000E94CC00DE
:10024800A1E00E94E700E0E09E2E6E2E0895AA939A
:10025800EF93FF93A8816894AA3019F0E894681482
:1002680030F09394E0E0EA93A92DCEDF36F0639462
:100278008FDFD89AA8810E94E700FF91EF910C9434
:100288009801BA93AA931A93A981BA81ED91A98387
:10029800BA831E2FE03019F0A12FD9DFF5CF1881CE
:1002A80023960895AA27BB271197F1F70895AA93D3
:1002B800D998AAB3A76FAABBBBB3BF70A8810E9485
:1002C800DD00D99A31C0AA93DA98D8988880E88155
:1002D800E058E0936C01E881E054E0936D010E94DE
:1002E80064030E9464030E946403DCDFA0E2DFDF92
:1002F800D9DFA8E20E946903A4E00E946903A5E887
:100308000E946903AAB3AF70AABBD99A0E94FF00E2
:10031800E53011F0E0E008C00E94CC00A6E00E94A1
:10032800E7000E941801E1E021960895BA93AA9384
:100338001A930A93AA81BB8112960E94A10330974F
:1003480059F1AA81BB8114960E94A1038F013097AD
:1003580061F00230E0E01E07F0F0F80131978F01FC
:10036800AA81BB811496ED93FC93AA81BB81129656
:10037800ED91FD913196FE93EE933197AC81A08378
:10038800AA81BB810E94A103FF232AF0ED91FD9170
:100398003196FE93EE9306C0AA81BB81EFEFFFEF83
:1003A800ED93FC931981088125960895BA93AA9331
:1003B80026970E94AE0310E0AC85BD85E0E0F0E032
:1003C800ED93FC93EA89FB893196EA8BFB8B319795
:1003D800E4912E2FE03011F40C940903E12FE03062
:1003E80039F4253211F411E002C00E946D030CC1EA
:1003F800E130A9F4253219F40E946D0304C112E01A
:1004080040E000E02D3211F401E0FEC02B3211F47F
:100418004BE2FAC0203211F440E2F6C002C0E230EA
:1004280039F450E013E0203311F40068EDC004C043
:10043800E33011F00C940803203310F02A3308F04D
:1004480007C0AAE05A9F502DE22FE0535E0FDCC090
:10045800E22FE33649F40E947403E889F989A481FC
:10046800AA930E947A03CFC0E33741F40E94740331
:100478000E9480030E9445031E2F0AC0E03761F4E2
:100488000E9474030E9480030E9451031E2F08607B
:1004980002600F7730E035C0E43611F0E93611F428
:1004A800046002C0E53731F4E4E5F0E0EE83FF8351
:1004B80015E00DC0E83511F4086004C0E83711F004
:1004C8000C940703EEE5F0E0EE83FF8314E002FFEF
:1004D80014C00E9474030E948A03AB85AA233AF4CD
:1004E800EA85FB850E949D03EA87FB874DE2403041
:1004F80011F01F5F01C00B7F04C00E9474030E94AB
:100508008A0300FD11C0151778F407FF08C002FF21
:1005180004C00B7F242F115001C020E301C020E24A
:100528000E946D035150EFCF312F01FF17C03030BB
:10053800A1F003FF06C0EE81FF812591EE83FF83C2
:1005480005C0AE81BF812D91AE83BF830E946D032C
:10055800503009F051503150EACF4BC020E3EE81C2
:10056800FF810E94A503E887F987EE81FF81329613
:10057800EE83FF83E885F985AA85BB85AE17BF079B
:1005880050F02F5FA885B985EA85FB85EA1BFB0B30
:10059800EA87FB87EFCF2A3328F003FF02C0295FE1
:1005A80001C0295D04FD1AC0213320F4A885B9854E
:1005B800119709F409C0531710F000FF01C013C0C8
:1005C80020E207FF0BC020E3006102FF07C00B7F9A
:1005D8004A930E947A03503009F051500E946D03EB
:1005E800503009F051503150A885B985129708F05C
:1005F800B5CF00FF08C0503031F05150E0E2EA9327
:100608000E947A03F8CF10E0DDCEAC85BD850E944C
:10061800A1030E94B50364960895FF92F82E2697C9
:100628000E94B0030E949203309719F4EFEFFFEF96
:1006380023C0DE0116960E9499038D010E94920341
:10064800EE83FF83E0E0E887E987DE011A960E94DF
:1006580099030E94A103FA93EA931A930A93EAE989
:10066800F1E0FA93EA93DE011A96A0DE9F01AE81CB
:10067800BF81E0E0EC93F9010E94B7032A96FF904E
:100688000895BA93AA93A991B991EE27FF276D917E
:10069800662311F03196FBCF0895BA93AA93AA273F
:1006A800BB27E991F9910590002011F01196FBCF35
:1006B800FD010895FF27662777270E94A90308955B
:1006C8000E945601A0E30C945B010E94E7000C9481
:1006D80056012A93AD85BE85EF85F8890995089559
:1006E800E889F9893497E88BF98B0895AD85BE853B
:1006F800EF85F88909950895A889B98914960E9403
:10070800A103EE83FF83AE81BF810895A889B989CB
:1007180014960E94A103EA87FB870895DE011C96C0
:100728000E9499030E94A10308950024AF0DB01DF3
:100738000895F195E195F0400895ED91FC91119798
:1007480008950590F491E02D08957A936A93FA93A9
:10075800EA9308955A934A933A932A931A930A93D9
:1007680008955D814C813B812A8119810881089512
:00000001FF
