:0E0000000C9454000C9400000C9400000C941E
:10000E0000000C9400000C9400000C9400000C9462
:10001E0000000C9400000C9400000C9400000C9452
:10002E0000000C9400000C9400000C9400000C9442
:10003E0000000C9400000C9400000C9400000C9432
:10004E0000000C9400001027E80364000A00010071
:10005E000010000110000100000000000000000070
:10006E005254430054696D653D253032753A253042
:10007E0032753A253032750001002D4E414E004941
:10008E004E46000080C008000400660001006001BA
:10009E0086000200640192000000F894EE27ECBB8B
:1000AE00F1E0FBBFEBBFE5BFF8E1F1BDE1BD8DE0D7
:1000BE00A2E0BB27ED938A95E9F780E094E0A0E6F5
:1000CE00ED930197E9F7E4E9F0E0859195910097BA
:1000DE0061F0A591B59105901590BF01F0010590C5
:1000EE000D920197E1F7FB01F0CFEFE5EDBFE4E0F4
:1000FE00EEBFC0E6D1E00C948400A097E0E0E5BB33
:10010E00E4BBE8BBE7BB0E943904E0E0EA93EA9364
:10011E00A0E00E948502A0E10E948C03E0E0EA9339
:10012E00A0E00E941C03AEE6B0E00E946803E0E08F
:10013E00EA93EA93A0E00E94C202A4E1B0E00E941A
:10014E008A04E5E0F0E0FA93EA93E4E0F0E0FA9353
:10015E00EA93A7E0B0E00E949F02FE017096FA9328
:10016E00EA93E2E7F0E0FA93EA93E52D0E94EF03BB
:10017E00E42D0E94EF03E72D0E94EF038CE00E9416
:10018E00510260960E942C03E0E0EA93A0E00E94E8
:10019E001C03DE0150960E945903AAEFB0E00E94A4
:1001AE008A04CFCFFFCFBA93AA931A930A93AA8148
:1001BE00BB8112960E949C04309759F1AA81BB8193
:1001CE0014960E949C048F01309761F00230E0E09B
:1001DE001E07F0F0F80131978F01AA81BB811496AA
:1001EE00ED93FC93AA81BB811296ED91FD91319610
:1001FE00FE93EE933197AC81A083AA81BB810E94BE
:10020E009C04FF232AF0ED91FD913196FE93EE931F
:10021E0006C0AA81BB81EFEFFFEFED93FC9319812E
:10022E00088125960895BA93AA9326970E94A90449
:10023E0010E0AC85BD85E0E0F0E0ED93FC93EA893B
:10024E00FB893196EA8BFB8B3197E4912E2FE030B0
:10025E0011F40C944902E12FE03039F4253211F4F7
:10026E0011E002C00E94F5030CC1E130A9F4253261
:10027E0019F40E94F50304C112E040E000E02D32B3
:10028E0011F401E0FEC02B3211F44BE2FAC0203221
:10029E0011F440E2F6C002C0E23039F450E013E04F
:1002AE00203311F40068EDC004C0E33011F00C945B
:1002BE004802203310F02A3308F007C0AAE05A9FF4
:1002CE00502DE22FE0535E0FDCC0E22FE33649F4EF
:1002DE000E94FC03E889F989A481AA930E94020472
:1002EE00CFC0E33741F40E94FC030E9408040E9431
:1002FE00BF031E2F0AC0E03761F40E94FC030E9468
:10030E0008040E94CB031E2F086002600F7730E0B6
:10031E0035C0E43611F0E93611F4046002C0E53759
:10032E0031F4E4E5F0E0EE83FF8315E00DC0E8352F
:10033E0011F4086004C0E83711F00C944702EEE5A2
:10034E00F0E0EE83FF8314E002FF14C00E94FC0372
:10035E000E941204AB85AA233AF4EA85FB850E941B
:10036E009804EA87FB874DE2403011F01F5F01C011
:10037E000B7F04C00E94FC030E94120400FD11C0FA
:10038E00151778F407FF08C002FF04C00B7F242F57
:10039E00115001C020E301C020E20E94F50351502C
:1003AE00EFCF312F01FF17C03030A1F003FF06C091
:1003BE00EE81FF812591EE83FF8305C0AE81BF8163
:1003CE002D91AE83BF830E94F503503009F051503A
:1003DE003150EACF4BC020E3EE81FF810E94A00492
:1003EE00E887F987EE81FF813296EE83FF83E885F9
:1003FE00F985AA85BB85AE17BF0750F02F5FA8857C
:10040E00B985EA85FB85EA1BFB0BEA87FB87EFCFF5
:10041E002A3328F003FF02C0295F01C0295D04FDC5
:10042E001AC0213320F4A885B985119709F409C0A3
:10043E00531710F000FF01C013C020E207FF0BC0DE
:10044E0020E3006102FF07C00B7F4A930E94020463
:10045E00503009F051500E94F503503009F05150C0
:10046E003150A885B985129708F0B5CF00FF08C0A6
:10047E00503031F05150E0E2EA930E940204F8CF7E
:10048E0010E0DDCEAC85BD850E949C040E94B004B8
:10049E0064960895FF92F82E26970E94AB040E9450
:1004AE001A04309719F4EFEFFFEF23C0DE01169612
:1004BE000E9494048D010E941A04EE83FF83E0E0F3
:1004CE00E887E987DE011A960E9494040E949C0434
:1004DE00FA93EA931A930A93EAEDF0E0FA93EA9309
:1004EE00DE011A96A0DE9F01AE81BF81E0E0EC93A3
:1004FE00F9010E94B2042A96FF900895AA93EA8108
:10050E00E370EA83E981E03019F0EA81E061EA8381
:10051E00E881E03019F0EA81E068EA830E94210464
:10052E00A7E00E947204AA810E9426040C9479030B
:10053E00BA93AA930E942104A0E00E9426040E946E
:10054E003E04A1ED0E9472040E942A04A881B98182
:10055E00EC930E942A04AA81BB81EC93A0E00E9436
:10056E005704AE2F0E94D803AC81BD81EC930E943C
:10057E004D0426960895AA930E942104A0E00E949D
:10058E007204A8810E94E503AE2F0E947204A98115
:10059E000E94E503AE2F0E947204AA810E94E50319
:1005AE00AE2F0E9426040C947903FFE0FA95F1F722
:1005BE000895AAB3AF70AABBD99AD898F6DFDA9A83
:1005CE00F4DFA9B3DA98F1DFDA9AEFDFDA98A7FD54
:1005DE00F5CF0895A07FAB2BABBBDA9A0E94DC025D
:1005EE00DA980E94DC020895AA93D998AAB3A76F4D
:1005FE00AABBBBB3BF70A881EDDFA881A295EADFCD
:10060E00D99A0C94BD03DA9A0E94DC02E9B3DA9807
:10061E000E94DC02E07F08950E94DC02F4DFAE2F20
:10062E00F2DFD998E295EA2B0895AA930E94E00290
:10063E00E881F0E0EC59FE4FE081A981AE0F0E94F7
:10064E00FB02A980D880229608950E94E002A2E0C3
:10065E000E94FB020E94E002ACE00E94FB020E949C
:10066E00E002A1E00E94FB02E0E0DE2EAE2E089535
:10067E00AA93EF93FF93A8816894AA3019F0E89497
:10068E00AC1430F0D394E0E0EA93AD2DCEDF36F02B
:10069E00A3948FDFD89AA8810E94FB02FF91EF915D
:1006AE000C94BD03BA93AA931A93A981BA81ED91C2
:1006BE00A983BA831E2FE03019F0A12FD9DFF5CF11
:1006CE0010C0BA93AA931A93E981FA813196E983FD
:1006DE00FA833197E4911E2FE03019F0A12FC8DF75
:1006EE00F3CF188123960895AA27BB271197F1F708
:1006FE000895AA93D998AAB3A76FAABBBBB3BF702C
:10070E00A8810E94F102D99A31C0AA93DA98D8989A
:10071E00C880E881E058E0936601E881E054E093F8
:10072E0067010E9430040E9430040E943004DCDF16
:10073E00A0E2DFDFD9DFA8E20E943504A4E00E9428
:10074E003504A5E80E943504AAB3AF70AABBD99AA6
:10075E000E941303E53011F0E0E008C00E94E002B1
:10076E00A6E00E94FB020E942C03E1E02196089570
:10077E00BA93AA93A991B991EE27FF276D9166239B
:10078E0011F03196FBCF0895BA93AA93AA27BB27EF
:10079E00E991F9910590002011F01196FBCFFD0122
:1007AE000895AA93E881E295EF70AE2FAA0FAA0FD3
:1007BE00EA0FEE0FA991AF70EA0F0895AA93A991CF
:1007CE00EE27AA5012F0E05FFCCFA65FEA0F089565
:1007DE00FF27662777270E94A40408952A93AD85E4
:1007EE00BE85EF85F88909950895E889F9893497CA
:1007FE00E88BF98B0895AD85BE85EF85F88909954F
:10080E000895A889B98914960E949C04EE83FF83EB
:10081E00AE81BF810895A889B98914960E949C045F
:10082E00EA87FB870895DE011C960E9494040E94BD
:10083E009C0408950E943E04A0ED0C9472040E9444
:10084E0072040C944D04A1E00E945704AE2F0C9438
:10085E00D8030E947B03A0E30C9480030E94FB024A
:10086E000C947B03A898A998A09AA19815C0A1985A
:10087E00A098EE270000999B0895989B089504D0A8
:10088E00A19A02D0A09AE1E06DE007C0A19AA09AC9
:10089E0003D0A098F9DFA1986BE16A95F1F708955E
:1008AE0078E0A098F1DF989BFECFEEDF88949999BF
:1008BE000894A09AF1DFEE1F7A9599F77A2F772395
:1008CE0011F4A19801C0A19ADFDFA098E5DFA09AEC
:1008DE00DBDFA198D9CF78E0AA0F10F4A19801C060
:1008EE00A19ADADFA098D0DF989BFECFCDDFA09A39
:1008FE007A9591F7A198C8DFA098CEDFE1E099999B
:10090E00EE27A09AC1CF109639F080ED97E00197AF
:10091E00F1F7A8951197C9F708950024AF0DB01DF2
:10092E000895F195E195F0400895ED91FC911197A0
:10093E0008950590F491E02D08957A936A93FA93B1
:10094E00EA9308955A934A933A932A931A930A93E1
:10095E0008955D814C813B812A811981088108951A
:00000001FF
