:040000000C948900D3
:100004000C9400000C9400000C9400000C9400006C
:100014000C9400000C9400000C9400000C9400005C
:100024000C9400000C9400000C9400000C9400004C
:100034000C9400000C9400000C9400000C9400003C
:100044000C9400000C9400000C9400000C9400002C
:100054001027E80364000A000100001000011000EA
:1000640001000000000000000000000025303264A0
:100074003A20203A20200020203A253032643A20C9
:10008400200020202F20202F323025303264002001
:10009400202F253032642F202000253032642F2079
:1000A400202F202000616C61726D28253032643A63
:1000B40020203A20202900616C61726D2820203AAA
:1000C400253032643A20202900253032753A253013
:1000D40032753A2530327500253032752F2530328D
:1000E400752F323025303275002A000001002D4E64
:1000F400414E00494E46000080C00A0004006600DC
:1001040001008401F00002008801FC000000F89462
:10011400EE27ECBBF1E0FBBFEBBFE5BFF8E1F1BDBF
:10012400E1BD8DE0A2E0BB27ED938A95E9F780E07D
:1001340094E0A0E6ED930197E9F7EEEFF0E0859106
:100144009591009761F0A591B59105901590BF0127
:10015400F00105900D920197E1F7FB01F0CFEFE577
:10016400EDBFE4E0EEBFC0E6D1E00C94D201F201B1
:1001740031962F01E6E0F0E0E415F50519F4442486
:1001840055243DC00E94BB04F201E130A0E0FA070F
:1001940029F40E94DE050E94E30529C0E230A0E0B4
:1001A400FA0729F40E94DE050E94F50520C0E33019
:1001B400A0E0FA0729F40E94DE050E94070611C098
:1001C400E430A0E0FA0729F40E94DE050E940E063E
:1001D40008C0E530A0E0FA0771F40E94DE050E9431
:1001E4001506FF27662777270E941C06A1E00E94B8
:1001F400F7040E942506A4EFB1E00E942D0708959C
:10020400F30131963F01E3E0F0E0E615F70519F458
:100214006624772425C00E94BB04F301E130A0E0EA
:10022400FA0741F40E94DE05E9EAF0E0FA93EA9362
:10023400EB2D0BC0E230A0E0FA0771F40E94DE055A
:10024400EBEBF0E0FA93EA93ED2DFF27662777278F
:100254000E941C060E942906A4EFB1E00E942D070B
:100264000895E1E0F0E0E415F50559F49394E8E12C
:10027400E91509F499240E942D060E94E3050E94C1
:100284003706E2E0F0E0E615F70581F4D394ECE3F9
:10029400ED1509F4DD240E94DE05EBEBF0E0FA93A2
:1002A400EA93ED2D0E943A060E942906E1E0F0E06F
:1002B400E615F70581F4B394E8E1EB1509F4BB24E2
:1002C4000E94DE05E9EAF0E0FA93EA93EB2D0E943E
:1002D4003A060E942906E2E0F0E0E415F50559F437
:1002E4008394ECE3E81509F488240E942D060E9407
:1002F400F5050E943706E3E0F0E0E415F505B9F4EE
:100304000E943E06E0918001EF5FE0938001A0919E
:100314008001A43619F4E0E0E09380010E944E06C7
:100324000E9407060E943A06A1E00E943706E4E014
:10033400F0E0E415F505B9F40E943E06E091810170
:10034400EF5FE0938101A0918101AD3019F4E1E008
:10035400E09381010E944E060E940E060E943A0616
:10036400A1E00E943706E5E0F0E0E415F505B9F4F4
:100374000E943E06E0918201EF5FE0938201A0912A
:100384008201A03219F4E1E0E09382010E944E065A
:100394000E9415060E943A06A1E00E9437060895BD
:1003A400E0E0E5BBE4BBE8BBEFEFE7BBEFE0EBBBB2
:1003B400E0EFEABB0E94DC06E0E0EA93EA93A0E007
:1003C4000E944A04A0E10E947A05E0E00E945B06D4
:1003D400E0E0EA93EA93A0E00E947D04E0E0EA937F
:1003E400EA93E1E0EA93ADE00E94A604A4E1B0E060
:1003F4000E942D07A0E0C899A1E00E945F060E9418
:10040400640609F0B4DEC99B2CDFA0E0CA99A1E020
:100414000E945F06D201E0E0F0E00E944907E0217B
:1004240009F0EEDECB9BA094D201E0E0F0E00E9464
:1004340049070E2E0E94640611F40C949902E9E017
:10044400F0E0FA93EA93E8E0F0E0FA93EA93ACE0A0
:10045400B0E00E9464040E943E06E82DAD2D0E9487
:100464003F07EA210E2EE92DAB2D0E943F070E22F5
:10047400AC2DE0E00E943F07E02109F0DF9AAA2DAD
:100484000E945F06E82DAD2D0E9444070E2AE92D37
:10049400AB2D0E944407E02909F0DF980E94DE0595
:1004A400EDECF0E0FA93EA93E92D0E946B06E82D57
:1004B4000E946B06EC2D0E946B068CE00E941604D1
:1004C4006096E0E7F1E0FA93EA93ECEDF0E0FA935A
:1004D400EA93E09182010E946B06E09181010E94FF
:1004E4006B06E09180010E946B068CE00E9416046A
:1004F40060960E940B05AA2031F0EFE00E945B0693
:10050400ADEEB0E005C0EFE00E945B06A9E7B0E005
:100514000E945605E0E0EA930E942906E0E0EA938F
:10052400A1E00E94F704A0E7B1E00E944705A8EC0F
:10053400B0E00E942D075ECFFFCFBA93AA931A931F
:100544000A93AA81BB8112960E944F07309759F1F2
:10055400AA81BB8114960E944F078F01309761F0E6
:100564000230E0E01E07F0F0F80131978F01AA8114
:10057400BB811496ED93FC93AA81BB811296ED91F5
:10058400FD913196FE93EE933197AC81A083AA81BD
:10059400BB810E944F07FF232AF0ED91FD91319614
:1005A400FE93EE9306C0AA81BB81EFEFFFEFED93BC
:1005B400FC931981088125960895BA93AA932697E6
:1005C4000E945C0710E0AC85BD85E0E0F0E0ED93AF
:1005D400FC93EA89FB893196EA8BFB8B3197E49192
:1005E4002E2FE03011F40C940E04E12FE03039F496
:1005F400253211F411E002C00E9471060CC1E130F1
:10060400A9F4253219F40E94710604C112E040E0F5
:1006140000E02D3211F401E0FEC02B3211F44BE264
:10062400FAC0203211F440E2F6C002C0E23039F4DC
:1006340050E013E0203311F40068EDC004C0E3304F
:1006440011F00C940D04203310F02A3308F007C085
:10065400AAE05A9F502DE22FE0535E0FDCC0E22F38
:10066400E33649F40E947806E889F989A481AA93BB
:100674000E947E06CFC0E33741F40E9478060E94B0
:1006840084060E94AE051E2F0AC0E03761F40E9462
:1006940078060E9484060E94BA051E2F0860026034
:1006A4000F7730E035C0E43611F0E93611F4046018
:1006B40002C0E53731F4E4E5F0E0EE83FF8315E0B2
:1006C4000DC0E83511F4086004C0E83711F00C944B
:1006D4000C04EEE5F0E0EE83FF8314E002FF14C0A7
:1006E4000E9478060E948E06AB85AA233AF4EA8516
:1006F400FB850E943B07EA87FB874DE2403011F0FF
:100704001F5F01C00B7F04C00E9478060E948E0602
:1007140000FD11C0151778F407FF08C002FF04C0DC
:100724000B7F242F115001C020E301C020E20E945E
:1007340071065150EFCF312F01FF17C03030A1F0B7
:1007440003FF06C0EE81FF812591EE83FF8305C080
:10075400AE81BF812D91AE83BF830E94710650305C
:1007640009F051503150EACF4BC020E3EE81FF81B4
:100774000E945307E887F987EE81FF813296EE8362
:10078400FF83E885F985AA85BB85AE17BF0750F0BE
:100794002F5FA885B985EA85FB85EA1BFB0BEA87F1
:1007A400FB87EFCF2A3328F003FF02C0295F01C083
:1007B400295D04FD1AC0213320F4A885B985119759
:1007C40009F409C0531710F000FF01C013C020E260
:1007D40007FF0BC020E3006102FF07C00B7F4A93B1
:1007E4000E947E06503009F051500E94710650302C
:1007F40009F051503150A885B985129708F0B5CF4A
:1008040000FF08C0503031F05150E0E2EA930E94FA
:100814007E06F8CF10E0DDCEAC85BD850E944F0783
:100824000E94630764960895FF92F82E26970E940B
:100834005E070E949606309719F4EFEFFFEF23C08E
:10084400DE0116960E9437078D010E949606EE83FC
:10085400FF83E0E0E887E987DE011A960E94370704
:100864000E944F07FA93EA931A930A93EFE9F2E08E
:10087400FA93EA93DE011A96A0DE9F01AE81BF814E
:10088400E0E0EC93F9010E9465072A96FF90089531
:10089400AA93EA81E370EA83E981E03019F0EA81FE
:1008A400E061EA83E881E03019F0EA81E068EA83F4
:1008B4000E949D06A7E00E941507AA810E94A20635
:1008C4000C946705BA93AA930E949D06A0E00E9427
:1008D400A2060E94A6060E94AE060E94B5060E94C9
:1008E400BB06AE2F0E94C705AC81BD81EC930E946C
:1008F400F00626960895AA930E949D06A0E00E9401
:10090400C1060E94C7060E94CD060E94A2060C944E
:100914006705BA93AA930E949D06A3E00E94A206CB
:100924000E94A606AE81BF81EC930E94B506AC81FD
:10093400BD81EC930E94B5060E94BB060E94AE06E0
:100944000E94F00628960895AA930E949D06A3E0AB
:100954000E941507AB810E94CD060E94C7060E9423
:10096400C1060E94A20624960895FFE0FA95F1F7C5
:100974000895A1B3AF70A1BB919A9098F6DF929AB3
:10098400F4DFA0B39298F1DF929AEFDF9298A7FD7B
:10099400F5CF0895A07FAB2BA2BB929A0E94B70417
:1009A40092980E94B7040895AA939198A1B3A76F4F
:1009B400A1BBB2B3BF70A881EDDFA881A295EADF25
:1009C400919A0C94AC05929A0E94B704E0B3929861
:1009D4000E94B704E07F08950E94B704F4DFAE2FAD
:1009E400F2DF9198E295EA2B0895AA930E94BB0442
:1009F400E881F0E0E857FE4FE081A981AE0F0E9444
:100A0400D604E981E0938C01E881E0938D0122967C
:100A140008950E94BB04A2E00E94D6040E94BB0475
:100A2400ACE00E94D6040E94BB04A1E00E94D6045C
:100A3400E0E0E0938D01E0938C010895AA93EF9395
:100A4400FF93A8816894AA3039F0E894E0918E016C
:100A5400A0918C01AE1758F0E0918D01EF5FE09307
:100A64008D01E0E0EA93A0918D01BFDF56F0E091A3
:100A74008C01EF5FE0938C017CDF909AA8810E9447
:100A8400D604FF91EF910C94AC05BA93AA931A93F0
:100A9400A981BA81ED91A983BA831E2FE03019F0A0
:100AA400A12FCCDFF5CF10C0BA93AA931A93E98192
:100AB400FA813196E983FA833197E4911E2FE0306D
:100AC40019F0A12FBBDFF3CF188123960895AA272D
:100AD400BB271197F1F70895AA939198A1B3A76F33
:100AE400A1BBB2B3BF70A8810E94CC04919A32C05A
:100AF400AA9392989098E881E0938E01E058E0934D
:100B04008A01E881E054E0938B010E94D3060E949D
:100B1400D3060E94D306DBDFA0E2DEDFD8DFA8E243
:100B24000E94D806A4E00E94D806A5E80E94D80630
:100B3400A1B3AF70A1BB919A0E94EE04E53011F00D
:100B4400E0E008C00E94BB04A6E00E94D6040E9414
:100B54000B05E1E021960895BA93AA93A991B9915E
:100B6400EE27FF276D91662311F03196FBCF089590
:100B7400BA93AA93AA27BB27E991F991059000207B
:100B840011F01196FBCFFD010895AA93E881E29537
:100B9400EF70AE2FAA0FAA0FEA0FEE0FA991AF7054
:100BA400EA0F0895AA93A991EE27AA5012F0E05FE4
:100BB400FCCFA65FEA0F0895E0E6F1E0FA93EA932A
:100BC4000895E0E7F0E0FA93EA93E92DFF2766271A
:100BD40077270E94570784E00E9416042896E0E0D5
:100BE400EA93A0E00895EBE7F0E0FA93EA93E82DA6
:100BF400FF27662777270E94570784E00E94160480
:100C04002896E0E0EA93A0E00895E6E8F0E0FA939D
:100C1400EA93E09180010895E3E9F0E0FA93EA931E
:100C2400E09181010895EEE9F0E0FA93EA93E0910E
:100C3400820108950E94570784E00E9416042896B2
:100C4400E0E0EA930895A0E6B1E00C944705A0E043
:100C54000E94F704F8CF9A928A92AC2D0E947D04E8
:100C6400AAE0B0E00E942D07A7CF0E94F704EBCFC3
:100C7400FF2766277727DECFE3E8F1E0FA93EA93CC
:100C8400E2E8F1E0FA93EA93E1E8F1E0FA93EA9317
:100C9400A0E8B1E00C948B04E0E0EA93E0918201D7
:100CA400EA93E0918101EA93A09180010E94A60455
:100CB40083CFEA93A0E00C94F704E0E00E943F079E
:100CC4000E2E0895D301E0E0F0E00E944907E021F0
:100CD4000895FF27662777270E94570708952A93C8
:100CE400AD85BE85EF85F88909950895E889F98968
:100CF4003497E88BF98B0895AD85BE85EF85F88927
:100D040009950895A889B98914960E944F07EE831E
:100D1400FF83AE81BF810895A889B98914960E9482
:100D24004F07EA87FB870895DE011C960E94370768
:100D34000E944F0708950E94E106A0ED0C94150748
:100D44000E9415070C94F0060E94E106A1ED0E9492
:100D54001507A1E00C94FA06AE2F0E94C705A881DE
:100D6400B981EC930895A1E00E94FA06AE2F0C9489
:100D7400C705AA81BB81EC93A0E00C94FA060E94FB
:100D84001507A8810FDFAE2F08950E941507A981CA
:100D940009DFAE2F08950E941507AA8103DFAE2F45
:100DA40008950E946905A0E30C946E050E94D60480
:100DB4000C946905A898A998A09AA19815C0A1981F
:100DC400A098EE270000999B0895989B089504D05D
:100DD400A19A02D0A09AE1E067E007C0A19AA09A84
:100DE40003D0A098F9DFA1986DE06A95F1F7089512
:100DF40078E0A098F1DF989BFECFEEDF8894999974
:100E04000894A09AF1DFEE1F7A9599F77A2F772349
:100E140011F4A19801C0A19ADFDFA098E5DFA09AA0
:100E2400DBDFA198D9CF78E0AA0F10F4A19801C014
:100E3400A19ADADFA098D0DF989BFECFCDDFA09AED
:100E44007A9591F7A198C8DFA098CEDFE1E099994F
:100E5400EE27A09AC1CF109639F088EE93E001975F
:100E6400F1F7A8951197C9F708950024AF0DB01DA7
:100E74000895F195E195F0400895EA17E1E009F04D
:100E8400EE270895EA17E1E009F4EE270895EA173A
:100E9400FB07E1E009F0EE270895ED91FC9111972D
:100EA40008950590F491E02D08957A936A93FA9346
:100EB400EA9308955A934A933A932A931A930A9376
:100EC40008955D814C813B812A81198108810895AF
:00000001FF
