:080000000C944D000C9400006B
:100008000C9400000C9400000C9400000C94000068
:100018000C9400000C9400000C9400000C94000058
:100028000C947D000C9400000C9400000C940000CB
:100038000C9400000C9400000C9400000C94000038
:100048000C9400000C9400000C9400001027E803A6
:1000580064000A0001000010000110000100000007
:1000680074656D70323D256420430074656D70338E
:100078003D257520430074656D70313D257520431D
:10008800000080C0020004006600020093018A009C
:100098000000F894EE27ECBBF1E0FBBFEBBFE5BF37
:1000A800F8E1F1BDE1BD8DE0A2E0BB27ED938A95B3
:1000B800E9F780E094E0A0E6ED930197E9F7ECE832
:1000C800F0E085919591009761F0A591B591059023
:1000D8001590BF01F00105900D920197E1F7FB0122
:1000E800F0CFEFE5EDBFE4E0EEBFC0E6D1E00C9461
:1000F8009700EA93FA93EFB7EA931A931FB1F201C4
:10010800E05AFE4F1083F20131962F01E3E0F0E050
:10011800E415F50511F4442455241991E991EFBF2C
:10012800F991E9911895E3E0EBBBE0E0EABBE8BBA5
:10013800E0E4E7BBE0E0E5BBE4BBE2BBE1BBE3BF77
:10014800E2BFECBFEFBDEEBDEDBDECBDE7BDE6BD6A
:10015800EBBDEABDE9BDE8BDE2BDE5BDE4BDE3BD7B
:10016800E5BFE4BFE9BFEAB9E0E8E8B9E0E0E0BF2D
:10017800E6B9E0ECEDB9E0E0EEB9EEB1EFB1E0E000
:10018800E6BFE0E1EA930E945B037894C89914C043
:10019800E0EFE2BBE3E7F1E0FA93EA93E8E6F0E0A8
:1001A800FA93EA93E09161010E94A4030E94AE03CE
:1001B800E3E7F1E00E94B303C99914C0E3E8F1E072
:1001C800FA93EA93E3E7F0E0FA93EA93E0916201A5
:1001D8000E94A403EFE0E2BB0E94AE03E3E8F1E073
:1001E8000E94B3037720A1F4E3E6F1E0FA93EA93DF
:1001F800EEE7F0E0FA93EA93E09160010E94A4032D
:100208000E94AE03E3E6F1E0FA93EA930E943C030E
:10021800E8EEF3E0FA93EA930E94F5037724B6CF69
:10022800FFCF1A930A93AA81BB8112960E940904F0
:10023800309759F1AA81BB8114960E9409048F0155
:10024800309761F00230E0E01E07F0F0F8013197D6
:100258008F01AA81BB811496ED93FC93AA81BB817F
:100268001296ED91FD913196FE93EE933197AC8104
:10027800A083AA81BB810E940904FF232AF0ED9183
:10028800FD913196FE93EE9306C0AA81BB81EFEFF4
:10029800FFEFED93FC931981088125960895269721
:1002A8000E94160410E0AC85BD85E0E0F0E0ED9317
:1002B800FC93EA89FB893196EA8BFB8B3197E491B1
:1002C8002E2FE03011F40C948002E12FE03039F445
:1002D800253211F411E002C00E94BA030CC1E130CA
:1002E800A9F4253219F40E94BA0304C112E040E0CF
:1002F80000E02D3211F401E0FEC02B3211F44BE284
:10030800FAC0203211F440E2F6C002C0E23039F4FB
:1003180050E013E0203311F40068EDC004C0E3306E
:1003280011F00C947F02203310F02A3308F007C034
:10033800AAE05A9F502DE22FE0535E0FDCC0E22F57
:10034800E33649F40E94C303E889F989A481AA9392
:100358000E94C903CFC0E33741F40E94C3030E943F
:10036800D1030E948F031E2F0AC0E03761F40E9458
:10037800C3030E94D1030E9499031E2F08600260E4
:100388000F7730E035C0E43611F0E93611F4046037
:1003980002C0E53731F4E4E5F0E0EE83FF8315E0D1
:1003A8000DC0E83511F4086004C0E83711F00C946A
:1003B8007E02EEE5F0E0EE83FF8314E002FF14C056
:1003C8000E94C3030E94DB03AB85AA233AF4EA85A3
:1003D800FB850E940504EA87FB874DE2403011F057
:1003E8001F5F01C00B7F04C00E94C3030E94DB0390
:1003F80000FD11C0151778F407FF08C002FF04C0FC
:100408000B7F242F115001C020E301C020E20E947D
:10041800BA035150EFCF312F01FF17C03030A1F090
:1004280003FF06C0EE81FF812591EE83FF8305C09F
:10043800AE81BF812D91AE83BF830E94BA03503035
:1004480009F051503150EACF4BC020E3EE81FF81D3
:100458000E940D04E887F987EE81FF813296EE83CA
:10046800FF83E885F985AA85BB85AE17BF0750F0DD
:100478002F5FA885B985EA85FB85EA1BFB0BEA8710
:10048800FB87EFCF2A3328F003FF02C0295F01C0A2
:10049800295D04FD1AC0213320F4A885B985119778
:1004A80009F409C0531710F000FF01C013C020E27F
:1004B80007FF0BC020E3006102FF07C00B7F4A93D0
:1004C8000E94C903503009F051500E94BA035030BD
:1004D80009F051503150A885B985129708F0B5CF69
:1004E80000FF08C0503031F05150E0E2EA930E941A
:1004F800C903F8CF10E0DDCEAC85BD850E940904A4
:100508000E941D0464960895FF92F82E26970E9473
:1005180018040E94E303309719F4EFEFFFEF25C0AA
:10052800DE0116960E9401048D010E94E303EE830A
:10053800FF83E0E0E887E987DE011A960E9401045C
:100548000E940904FA93EA931A930A93E5E1F1E009
:10055800FA93EA93FE013A96FA93EA93A0DE9F0192
:10056800AE81BF81E0E0EC93F9010E941F042A9656
:10057800FF900895FFE0FA95F1F70895A4B3AF70DE
:10058800A4BBA99AA898F6DFAA9AF4DFA3B3AA98FD
:10059800F1DFAA9AEFDFAA98A7FDF5CF0895A07F0B
:1005A800AB2BA5BBAA9A0E94BE02AA980E94BE02C3
:1005B8000895A998A4B3A76FA4BBB5B3BF70A881C9
:1005C800EEDFA881A295EBDFA99A0C948D03AA9A75
:1005D8000E94BE02E3B3AA980E94BE02E07F08957B
:1005E8000E94BE02F4DFAE2FF2DFA998E295EA2B53
:1005F80008950E94C202E881F0E0ED56FE4FE081C6
:10060800A981EA0FEA930E94DD0269809880229608
:1006180008950E94C202E2E0EA930E94DD020E946D
:10062800C202ECE0EA930E94DD020E94C202E1E00D
:10063800EA930E94DD02E0E09E2E6E2E0895EF936D
:10064800FF93A8816894AA3019F0E894681430F0F0
:100658009394E0E0EA939A92CCDF36F063948EDFCD
:10066800A89AA881AA93A5DFFF91EF910C948D0316
:100678001A93A981BA81ED91A983BA831E2FE0301C
:1006880019F01A93DCDFF5CF188123960895AA276D
:10069800BB271197F1F70895A998A4B3A76FA4BB36
:1006A800B5B3BF70A8810E94D302A99A32C0AA9894
:1006B800A8988880E881E058E0939501E881E054A3
:1006C800E09396010E94EA030E94EA030E94EA036B
:1006D800DEDFE0E2EA93E0DFDADFE8E20E94F0033F
:1006E800E4E00E94F003E5E80E94F003A4B3AF70D1
:1006F800A4BBA99A0E94F402E53011F0E0E009C019
:100708000E94C202E6E0EA930E94DD020E940D0305
:10071800E1E021960895A991B991EE27FF276D91FF
:10072800662311F03196FBCF0895AA27BB27E991DC
:10073800F9910590002011F01196FBCFFD01089565
:10074800FF27662777270E94110484E00E94880209
:1007580028960895E0E0EA93EA930C94FD02FA9350
:10076800EA930E943C03E1E07E2E08952A93ED85EA
:10077800FE85FA93EA93E989FA8909950895E88943
:10078800F9893497E88BF98B0895ED85FE85FA93FE
:10079800EA93E989FA8909950895A889B989149687
:1007A8000E940904EE83FF83FA93EA930895A889C7
:1007B800B98914960E940904EA87FB870895DE0127
:1007C8001C960E9401040E94090408950E944B038C
:1007D800E0E3EA930C945003EA930E94DD020C9440
:1007E8004B03E991F991309639F080ED97E0019744
:1007F800F1F7A8953197C9F708950024AF0DB01DFA
:100808000895F195E195F0400895ED91FC911197C7
:1008180008950590F491E02D08957A936A93FA93D8
:10082800EA9308955A934A933A932A931A930A9308
:1008380008955D814C813B812A8119810881089541
:00000001FF
