:060000000C944D000C946D
:1000060000000C9400000C9400000C9400000C946A
:1000160000000C9400000C9400000C9400000C945A
:1000260000000C947D000C9400000C9400000C94CD
:1000360000000C9400000C9400000C9400000C943A
:1000460000000C9400000C9400000C940000102793
:10005600E80364000A00010000100001100001001E
:10006600000074656D70313D256420430074656D34
:1000760070323D257520430074656D70333D2575DE
:100086002043000080C002000400660002009301C5
:100096008A000000F894EE27ECBBF1E0FBBFEBBF53
:1000A600E5BFF8E1F1BDE1BD8DE0A2E0BB27ED9330
:1000B6008A95E9F780E094E0A0E6ED930197E9F7E9
:1000C600ECE8F0E085919591009761F0A591B591E6
:1000D60005901590BF01F00105900D920197E1F78B
:1000E600FB01F0CFEFE5EDBFE4E0EEBFC0E6D1E007
:1000F6000C949700EA93FA93EFB7EA931A931FB119
:10010600F201E05AFE4F1083F20131962F01E3E02F
:10011600F0E0E415F50511F4442455241991E9910C
:10012600EFBFF991E9911895E3E0EBBBE0E0EABB9C
:10013600E8BBE0E4E7BBE0E0E5BBE4BBE2BBE1BB78
:10014600E3BFE2BFECBFEFBDEEBDEDBDECBDE7BD6D
:10015600E6BDEBBDEABDE9BDE8BDE2BDE5BDE4BD7A
:10016600E3BDE5BFE4BFE9BFEAB9E0E8E8B9E0E02E
:10017600E0BFE6B9E0ECEDB9E0E0EEB9EEB1EFB123
:10018600E0E0E6BFE0E1EA930E9453037894C89961
:1001960012C0E0EFE2BBE3E7F1E0FA93EA93E8E6A8
:1001A600F0E0FA93EA93E09160010E949C03E3E792
:1001B600F1E00E94AA03C99910C0E3E8F1E0FA93BE
:1001C600EA93E3E7F0E0FA93EA93E09161010E9493
:1001D6009C03E3E8F1E00E94AA03772091F4E3E6AA
:1001E600F1E0FA93EA93EEE7F0E0FA93EA93E0910E
:1001F60062010E949C03E3E6F1E0FA93EA930E940F
:100206003403E8EEF3E0FA93EA930E94EC037724D2
:10021600BECFFFCF1A930A93AA81BB8112960E9482
:100226000004309759F1AA81BB8114960E940004FC
:100236008F01309761F00230E0E01E07F0F0F80120
:1002460031978F01AA81BB811496ED93FC93AA8105
:10025600BB811296ED91FD913196FE93EE93319707
:10026600AC81A083AA81BB810E940004FF232AF0EF
:10027600ED91FD913196FE93EE9306C0AA81BB8166
:10028600EFEFFFEFED93FC93198108812596089512
:1002960026970E940D0410E0AC85BD85E0E0F0E0F5
:1002A600ED93FC93EA89FB893196EA8BFB8B3197B8
:1002B600E4912E2FE03011F40C947802E12FE03017
:1002C60039F4253211F411E002C00E94B1030CC1C9
:1002D600E130A9F4253219F40E94B10304C112E0F9
:1002E60040E000E02D3211F401E0FEC02B3211F4A3
:1002F6004BE2FAC0203211F440E2F6C002C0E2300E
:1003060039F450E013E0203311F40068EDC004C066
:10031600E33011F00C947702203310F02A3308F002
:1003260007C0AAE05A9F502DE22FE0535E0FDCC0B3
:10033600E22FE33649F40E94BA03E889F989A481D9
:10034600AA930E94C003CFC0E33741F40E94BA03C8
:100356000E94C8030E9487031E2F0AC0E03761F47B
:100366000E94BA030E94C8030E9491031E2F0860D0
:1003760002600F7730E035C0E43611F0E93611F44B
:10038600046002C0E53731F4E4E5F0E0EE83FF8374
:1003960015E00DC0E83511F4086004C0E83711F027
:1003A6000C947602EEE5F0E0EE83FF8314E002FFA4
:1003B60014C00E94BA030E94D203AB85AA233AF462
:1003C600EA85FB850E94FC03EA87FB874DE2403005
:1003D60011F01F5F01C00B7F04C00E94BA030E9488
:1003E600D20300FD11C0151778F407FF08C002FFFD
:1003F60004C00B7F242F115001C020E301C020E26E
:100406000E94B1035150EFCF312F01FF17C030309A
:10041600A1F003FF06C0EE81FF812591EE83FF83E5
:1004260005C0AE81BF812D91AE83BF830E94B1030B
:10043600503009F051503150EACF4BC020E3EE81E5
:10044600FF810E940404E887F987EE81FF813296D6
:10045600EE83FF83E885F985AA85BB85AE17BF07BE
:1004660050F02F5FA885B985EA85FB85EA1BFB0B53
:10047600EA87FB87EFCF2A3328F003FF02C0295F04
:1004860001C0295D04FD1AC0213320F4A885B98571
:10049600119709F409C0531710F000FF01C013C0EB
:1004A60020E207FF0BC020E3006102FF07C00B7FBD
:1004B6004A930E94C003503009F051500E94B10384
:1004C600503009F051503150A885B985129708F07F
:1004D600B5CF00FF08C0503031F05150E0E2EA934A
:1004E6000E94C003F8CF10E0DDCEAC85BD850E942A
:1004F60000040E94140464960895FF92F82E26972D
:100506000E940F040E94DA03309719F4EFEFFFEF11
:1005160025C0DE0116960E94F8038D010E94DA03BB
:10052600EE83FF83E0E0E887E987DE011A960E9402
:10053600F8030E940004FA93EA931A930A93EDE0F3
:10054600F1E0FA93EA93FE013A96FA93EA93A0DE73
:100556009F01AE81BF81E0E0EC93F9010E94160491
:100566002A96FF900895FFE0FA95F1F70895A4B34F
:10057600AF70A4BBA99AA898F6DFAA9AF4DFA3B332
:10058600AA98F1DFAA9AEFDFAA98A7FDF5CF0895FA
:10059600A07FAB2BA5BBAA9A0E94B602AA980E947E
:1005A600B6020895A998A4B3A76FA4BBB5B3BF704C
:1005B600A881EEDFA881A295EBDFA99A0C948503AA
:1005C600AA9A0E94B602E3B3AA980E94B602E07FF6
:1005D60008950E94B602F4DFAE2FF2DFA998E295E5
:1005E600EA2B08950E94BA02E881F0E0ED56FE4F2C
:1005F600E081A981EA0FEA930E94D502698098807A
:10060600229608950E94BA02E2E0EA930E94D50279
:100616000E94BA02ECE0EA930E94D5020E94BA0256
:10062600E1E0EA930E94D502E0E09E2E6E2E089548
:10063600EF93FF93A8816894AA3019F0E8946814A0
:1006460030F09394E0E0EA939A92CCDF36F063942C
:100656008EDFA89AA881AA93A5DFFF91EF910C944B
:1006660085031A93A981BA81ED91A983BA831E2FB6
:10067600E03019F01A93DCDFF5CF18812396089540
:10068600AA27BB271197F1F70895A998A4B3A76FD6
:10069600A4BBB5B3BF70A8810E94CB02A99A32C091
:1006A600AA98A8988880E881E058E0939501E881A7
:1006B600E054E09396010E94E1030E94E1030E9448
:1006C600E103DEDFE0E2EA93E0DFDADFE8E20E9460
:1006D600E703E4E00E94E703E5E80E94E703A4B32A
:1006E600AF70A4BBA99A0E94EC02E53011F0E0E0DD
:1006F60009C00E94BA02E6E0EA930E94D5020E946F
:100706000503E1E021960895A991B991EE27FF2707
:100716006D91662311F03196FBCF0895AA27BB276A
:10072600E991F9910590002011F01196FBCFFD019A
:100736000895FF27662777270E94080484E00E9411
:1007460080022896E0E0EA93EA930C94F502FA9385
:10075600EA930E943403E1E07E2E08952A93ED8504
:10076600FE85FA93EA93E989FA8909950895E88955
:10077600F9893497E88BF98B0895ED85FE85FA9310
:10078600EA93E989FA8909950895A889B989149699
:100796000E940004EE83FF83FA93EA930895A889E2
:1007A600B98914960E940004EA87FB870895DE0142
:1007B6001C960E94F8030E94000408950E944303B9
:1007C600E0E3EA930C944803EA930E94D5020C9462
:1007D6004303E991F991309639F080ED97E001975E
:1007E600F1F7A8953197C9F708950024AF0DB01D0C
:1007F6000895F195E195F0400895ED91FC911197DA
:1008060008950590F491E02D08957A936A93FA93EA
:10081600EA9308955A934A933A932A931A930A931A
:1008260008955D814C813B812A8119810881089553
:00000001FF
