:0A0000000C9448000C9400000C94CE
:10000A0000000C9400000C9400000C9400000C9466
:10001A0000000C9400000C9400000C9400000C9456
:10002A0000000C9400000C9400000C9400000C9446
:10003A0000000C9400000C9400000C9400000C9436
:10004A0000000C9400000C9400001027E8036400E0
:10005A000A00010000100001100001006D682E73F3
:10006A0068612D6D2E6D6172000001002D4E414EAA
:10007A0000494E46000080C0010070017400020071
:10008A00740180000000F894EE27ECBBF1E0FBBF9E
:10009A00EBBFE5BFF8E1F1BDE1BD8DE0A2E0BB2712
:1000AA00ED938A95E9F780E094E0A0E6ED93019755
:1000BA00E9F7E2E8F0E085919591009761F0A59162
:1000CA00B59105901590BF01F00105900D92019729
:1000DA00E1F7FB01F0CFEFE5EDBFE4E0EEBFC0E6EC
:1000EA00D1E00C948700AA93E881E064E7B98DE037
:1000FA008A95F1F7369A349BFECF349AE4B1F5B17A
:10010A000C948503E0E4E7B9E2E8E6B9E0E0EDB98A
:10011A00E6BFA0E10E945403E0E0EA93A1E00E9456
:10012A00F502E0E6F1E0FA93EA93E6E6F0E0FA9304
:10013A00EA9380E00E9481022496A0E6B1E00E9440
:10014A003203A0E0D0DF5E2E552011F40C94040196
:10015A00E8E2E51511F4E0E349C0EDE2E51511F432
:10016A00E1E344C0E2E3E51509F440C0E7E3E5153D
:10017A0011F4E3E33BC0E9E3E51511F4E4E336C027
:10018A00E2E4E51511F4E5E331C0ECE4E51511F418
:10019A00E6E32CC0E2E6E51511F4E7E327C0E0E860
:1001AA00E51511F4E8E322C0EBEAE51511F4E9E3F9
:1001BA001DC0E5E2E51511F4E3E618C0ECE2E51529
:1001CA0011F4EDE313C0EFE2E51511F4EBE20EC012
:1001DA00ECE3E51511F4EDE209C0E5E5E51511F4E6
:1001EA00EAE204C0E3EEE51511F4EFE24E2EE0E098
:1001FA00EA93A0E00E94F502A42D0E941803AAE047
:10020A00B0E00E94D5039DCFFFCFBA93AA931A9369
:10021A000A93AA81BB8112960E94E703309759F18B
:10022A00AA81BB8114960E94E7038F01309761F07F
:10023A000230E0E01E07F0F0F80131978F01AA8141
:10024A00BB811496ED93FC93AA81BB811296ED9122
:10025A00FD913196FE93EE933197AC81A083AA81EA
:10026A00BB810E94E703FF232AF0ED91FD913196AD
:10027A00FE93EE9306C0AA81BB81EFEFFFEFED93E9
:10028A00FC931981088125960895BA93AA93269713
:10029A000E94EF0310E0AC85BD85E0E0F0E0ED934D
:1002AA00FC93EA89FB893196EA8BFB8B3197E491BF
:1002BA002E2FE03011F40C947902E12FE03039F45A
:1002CA00253211F411E002C00E94A0030CC1E130F2
:1002DA00A9F4253219F40E94A00304C112E040E0F7
:1002EA0000E02D3211F401E0FEC02B3211F44BE292
:1002FA00FAC0203211F440E2F6C002C0E23039F40A
:10030A0050E013E0203311F40068EDC004C0E3307C
:10031A0011F00C947802203310F02A3308F007C049
:10032A00AAE05A9F502DE22FE0535E0FDCC0E22F65
:10033A00E33649F40E94A703E889F989A481AA93BC
:10034A000E94AD03CFC0E33741F40E94A7030E9485
:10035A00B3030E9487031E2F0AC0E03761F40E948C
:10036A00A7030E94B3030E9493031E2F0860026032
:10037A000F7730E035C0E43611F0E93611F4046045
:10038A0002C0E53731F4E4E5F0E0EE83FF8315E0DF
:10039A000DC0E83511F4086004C0E83711F00C9478
:1003AA007702EEE5F0E0EE83FF8314E002FF14C06B
:1003BA000E94A7030E94BD03AB85AA233AF4EA85EB
:1003CA00FB850E94E303EA87FB874DE2403011F088
:1003DA001F5F01C00B7F04C00E94A7030E94BD03D8
:1003EA0000FD11C0151778F407FF08C002FF04C00A
:1003FA000B7F242F115001C020E301C020E20E948C
:10040A00A0035150EFCF312F01FF17C03030A1F0B8
:10041A0003FF06C0EE81FF812591EE83FF8305C0AD
:10042A00AE81BF812D91AE83BF830E94A00350305D
:10043A0009F051503150EACF4BC020E3EE81FF81E1
:10044A000E94EB03E887F987EE81FF813296EE83FB
:10045A00FF83E885F985AA85BB85AE17BF0750F0EB
:10046A002F5FA885B985EA85FB85EA1BFB0BEA871E
:10047A00FB87EFCF2A3328F003FF02C0295F01C0B0
:10048A00295D04FD1AC0213320F4A885B985119786
:10049A0009F409C0531710F000FF01C013C020E28D
:1004AA0007FF0BC020E3006102FF07C00B7F4A93DE
:1004BA000E94AD03503009F051500E94A003503001
:1004CA0009F051503150A885B985129708F0B5CF77
:1004DA0000FF08C0503031F05150E0E2EA930E9428
:1004EA00AD03F8CF10E0DDCEAC85BD850E94E703F1
:1004FA000E94F60364960895FF92F82E26970E94AA
:10050A00F1030E94C503309719F4EFEFFFEF23C000
:10051A00DE0116960E94DF038D010E94C503EE8359
:10052A00FF83E0E0E887E987DE011A960E94DF038D
:10053A000E94E703FA93EA931A930A93EAE0F1E036
:10054A00FA93EA93DE011A96A0DE9F01AE81BF817B
:10055A00E0E0EC93F9010E94F8032A96FF900895CF
:10056A00FFE0FA95F1F70895A1B3AF70A1BB919A94
:10057A009098F6DF929AF4DFA0B39298F1DF929AFC
:10058A00EFDF9298A7FDF5CF0895A07FAB2BA2BB12
:10059A00929A0E94B50292980E94B5020895AA936F
:1005AA009198A1B3A76FA1BBB2B3BF70A881EDDFC9
:1005BA00A881A295EADF919A0C948503929A0E94E7
:1005CA00B502E0B392980E94B502E07F08950E94B6
:1005DA00B502F4DFAE2FF2DF9198E295EA2B089587
:1005EA00AA930E94B902E881F0E0EC58FE4FE0813C
:1005FA00A981AE0F0E94D40279806880229608955C
:10060A000E94B902A2E00E94D4020E94B902ACE0A0
:10061A000E94D4020E94B902A1E00E94D402E0E042
:10062A006E2E7E2E0895AA93EF93FF93A881689465
:10063A00AA3019F0E894791430F06394E0E0EA9370
:10064A00A62DCEDF36F073948FDF909AA8810E9490
:10065A00D402FF91EF910C948503BA93AA931A934B
:10066A00A981BA81ED91A983BA831E2FE03019F0CE
:10067A00A12FD9DFF5CF188123960895AA27BB2782
:10068A001197F1F70895AA939198A1B3A76FA1BB07
:10069A00B2B3BF70A8810E94CA02919A31C0AA93CC
:1006AA00929890989880E881E058E0937601E881E2
:1006BA00E054E09377010E94CC030E94CC030E948D
:1006CA00CC03DCDFA0E2DFDFD9DFA8E20E94D1039E
:1006DA00A4E00E94D103A5E80E94D103A1B3AF70A0
:1006EA00A1BB919A0E94EC02E53011F0E0E008C04B
:1006FA000E94B902A6E00E94D4020E940503E1E02A
:10070A0021960895BA93AA93A991B991EE27FF2742
:10071A006D91662311F03196FBCF0895BA93AA938F
:10072A00AA27BB27E991F9910590002011F01196AB
:10073A00FBCFFD0108952A93AD85BE85EF85F88923
:10074A0009950895E889F9893497E88BF98B089512
:10075A00AD85BE85EF85F88909950895A889B98977
:10076A0014960E94E703EE83FF83AE81BF8108954A
:10077A00A889B98914960E94E703EA87FB87089536
:10078A00DE011C960E94DF030E94E70308950E947F
:10079A004303A0E30C9448030E94D4020C9443033D
:1007AA00109639F088EE93E00197F1F7A895119722
:1007BA00C9F708950024AF0DB01D0895F195E1958C
:1007CA00F0400895ED91FC91119708950590F491E8
:1007DA00E02D08955A934A933A932A931A930A93C7
:1007EA0008955D814C813B812A8119810881089590
:00000001FF
